{"abi":[{"type":"constructor","inputs":[{"name":"tokenAddresses","type":"address[]","internalType":"address[]"},{"name":"priceFeedAddress","type":"address[]","internalType":"address[]"},{"name":"dscAddress","type":"address","internalType":"address"}],"stateMutability":"nonpayable"},{"type":"function","name":"burnDsc","inputs":[{"name":"amount","type":"uint256","internalType":"uint256"}],"outputs":[],"stateMutability":"nonpayable"},{"type":"function","name":"depositCollateral","inputs":[{"name":"tokenCollateralAddress","type":"address","internalType":"address"},{"name":"amountCollateral","type":"uint256","internalType":"uint256"}],"outputs":[],"stateMutability":"nonpayable"},{"type":"function","name":"depositCollateralAndMintinDsc","inputs":[{"name":"tokenCollateralAddress","type":"address","internalType":"address"},{"name":"amountCollateral","type":"uint256","internalType":"uint256"},{"name":"amountDscToMint","type":"uint256","internalType":"uint256"}],"outputs":[],"stateMutability":"nonpayable"},{"type":"function","name":"getAccountCollateralValue","inputs":[{"name":"user","type":"address","internalType":"address"}],"outputs":[{"name":"totalCollateralValueInUsd","type":"uint256","internalType":"uint256"}],"stateMutability":"view"},{"type":"function","name":"getAccountInformation","inputs":[{"name":"user","type":"address","internalType":"address"}],"outputs":[{"name":"totalDscMinted","type":"uint256","internalType":"uint256"},{"name":"collateralValueInUsd","type":"uint256","internalType":"uint256"}],"stateMutability":"view"},{"type":"function","name":"getHealthFactor","inputs":[],"outputs":[],"stateMutability":"view"},{"type":"function","name":"getTokenAmountFromUsd","inputs":[{"name":"token","type":"address","internalType":"address"},{"name":"usdAmountInWei","type":"uint256","internalType":"uint256"}],"outputs":[{"name":"","type":"uint256","internalType":"uint256"}],"stateMutability":"view"},{"type":"function","name":"getUsdValue","inputs":[{"name":"token","type":"address","internalType":"address"},{"name":"amount","type":"uint256","internalType":"uint256"}],"outputs":[{"name":"","type":"uint256","internalType":"uint256"}],"stateMutability":"view"},{"type":"function","name":"liquidate","inputs":[{"name":"collateral","type":"address","internalType":"address"},{"name":"user","type":"address","internalType":"address"},{"name":"debtToCover","type":"uint256","internalType":"uint256"}],"outputs":[],"stateMutability":"nonpayable"},{"type":"function","name":"mintDsc","inputs":[{"name":"amountDscToMint","type":"uint256","internalType":"uint256"}],"outputs":[],"stateMutability":"nonpayable"},{"type":"function","name":"redeemCollateral","inputs":[{"name":"tokenCollateralAddress","type":"address","internalType":"address"},{"name":"amountCollateral","type":"uint256","internalType":"uint256"}],"outputs":[],"stateMutability":"nonpayable"},{"type":"function","name":"redeemCollateralForDsc","inputs":[{"name":"tokenCollateralAddress","type":"address","internalType":"address"},{"name":"amountCollateral","type":"uint256","internalType":"uint256"},{"name":"amountDscToBurn","type":"uint256","internalType":"uint256"}],"outputs":[],"stateMutability":"nonpayable"},{"type":"event","name":"CollateralDeposited","inputs":[{"name":"user","type":"address","indexed":true,"internalType":"address"},{"name":"token","type":"address","indexed":true,"internalType":"address"},{"name":"amount","type":"uint256","indexed":false,"internalType":"uint256"}],"anonymous":false},{"type":"event","name":"CollateralRedeemed","inputs":[{"name":"redeemedFrom","type":"address","indexed":true,"internalType":"address"},{"name":"redeemedTo","type":"address","indexed":true,"internalType":"address"},{"name":"token","type":"address","indexed":true,"internalType":"address"},{"name":"amount","type":"uint256","indexed":false,"internalType":"uint256"}],"anonymous":false},{"type":"error","name":"DSCEngine__BreaksHealthFactor","inputs":[{"name":"healthFactorValue","type":"uint256","internalType":"uint256"}]},{"type":"error","name":"DSCEngine__HealthFactorNotImproved","inputs":[]},{"type":"error","name":"DSCEngine__HealthFactorOk","inputs":[]},{"type":"error","name":"DSCEngine__MintFailed","inputs":[]},{"type":"error","name":"DSCEngine__NeedsMoreThanZero","inputs":[]},{"type":"error","name":"DSCEngine__NotAllowedToken","inputs":[]},{"type":"error","name":"DSCEngine__TokenAddressesAndPriceFeedAddressesMustBeSameLength","inputs":[]},{"type":"error","name":"DSCEngine__TransferFailed","inputs":[]},{"type":"error","name":"ReentrancyGuardReentrantCall","inputs":[]}],"bytecode":{"object":"0x60a06040523480156200001157600080fd5b50604051620010fe380380620010fe833981016040819052620000349162000248565b600160005581518351146200005c57604051635ae2e09360e11b815260040160405180910390fd5b60005b835181101562000152578281815181106200007e576200007e620002c4565b6020026020010151600160008684815181106200009f576200009f620002c4565b60200260200101516001600160a01b03166001600160a01b0316815260200190815260200160002060006101000a8154816001600160a01b0302191690836001600160a01b031602179055506004848281518110620001025762000102620002c4565b60209081029190910181015182546001810184556000938452919092200180546001600160a01b0319166001600160a01b03909216919091179055806200014981620002da565b9150506200005f565b506001600160a01b031660805250620003029050565b634e487b7160e01b600052604160045260246000fd5b80516001600160a01b03811681146200019657600080fd5b919050565b600082601f830112620001ad57600080fd5b815160206001600160401b0380831115620001cc57620001cc62000168565b8260051b604051601f19603f83011681018181108482111715620001f457620001f462000168565b6040529384528581018301938381019250878511156200021357600080fd5b83870191505b848210156200023d576200022d826200017e565b8352918301919083019062000219565b979650505050505050565b6000806000606084860312156200025e57600080fd5b83516001600160401b03808211156200027657600080fd5b62000284878388016200019b565b945060208601519150808211156200029b57600080fd5b50620002aa868287016200019b565b925050620002bb604085016200017e565b90509250925092565b634e487b7160e01b600052603260045260246000fd5b600060018201620002fb57634e487b7160e01b600052601160045260246000fd5b5060010190565b608051610dd26200032c600039600081816106f901528181610a060152610aab0152610dd26000f3fe608060405234801561001057600080fd5b50600436106100b45760003560e01c8063afea2e4811610071578063afea2e4814610142578063c660d11214610155578063c9b7c32714610168578063f11d94541461017b578063f419ea9c1461018e578063f6876608146101a157600080fd5b806326c01303146100b95780637be564fc146100ce5780637d1a4450146100fb5780639acd81b31461011c578063a5d5db0c1461012f578063a5f352b7146100cc575b600080fd5b6100cc6100c7366004610b98565b6101b4565b005b6100e16100dc366004610bd4565b6102ac565b604080519283526020830191909152015b60405180910390f35b61010e610109366004610bd4565b6102c2565b6040519081526020016100f2565b6100cc61012a366004610bf6565b61034a565b6100cc61013d366004610bf6565b610398565b61010e610150366004610bf6565b610519565b61010e610163366004610bf6565b6105d7565b6100cc610176366004610c20565b610682565b6100cc610189366004610c39565b61079d565b6100cc61019c366004610c39565b6107b0565b6100cc6101af366004610c20565b6107c3565b80806000036101d65760405163cb1d3f7d60e01b815260040160405180910390fd5b6101de6107f9565b60006101e984610823565b9050670de0b6b3a764000081106102135760405163032c072f60e41b815260040160405180910390fd5b600061021f8685610519565b905060006064610230600a84610c82565b61023a9190610c99565b905060006102488284610cbb565b905061025688828933610877565b6102618688336109aa565b600061026c88610823565b905084811161028e576040516303e141b160e51b815260040160405180910390fd5b61029733610b15565b50505050506102a66001600055565b50505050565b6000806102b883610b52565b9094909350915050565b6000805b600454811015610344576000600482815481106102e5576102e5610cce565b60009182526020808320909101546001600160a01b0387811684526002835260408085209190921680855292529091205490915061032382826105d7565b61032d9085610cbb565b93505050808061033c90610ce4565b9150506102c6565b50919050565b808060000361036c5760405163cb1d3f7d60e01b815260040160405180910390fd5b6103746107f9565b61038083833333610877565b61038933610b15565b6103936001600055565b505050565b80806000036103ba5760405163cb1d3f7d60e01b815260040160405180910390fd5b6001600160a01b038084166000908152600160205260409020548491166103f45760405163540167df60e11b815260040160405180910390fd5b6103fc6107f9565b3360009081526002602090815260408083206001600160a01b03881684529091528120805485929061042f908490610cbb565b90915550506040518381526001600160a01b0385169033907ff1c0dd7e9b98bbff859029005ef89b127af049cd18df1a8d79f0b7e019911e569060200160405180910390a36040516323b872dd60e01b8152336004820152306024820152604481018490526000906001600160a01b038616906323b872dd906064016020604051808303816000875af11580156104ca573d6000803e3d6000fd5b505050506040513d601f19601f820116820180604052508101906104ee9190610cfd565b90508061050e57604051634dc34d1760e01b815260040160405180910390fd5b506102a66001600055565b6001600160a01b03808316600090815260016020526040808220548151633fabe5a360e21b81529151929316918391839163feaf968c9160048082019260a0929091908290030181865afa158015610575573d6000803e3d6000fd5b505050506040513d601f19601f820116820180604052508101906105999190610d39565b5050509150506402540be400816105b09190610c82565b6105c2670de0b6b3a764000086610c82565b6105cc9190610c99565b925050505b92915050565b6001600160a01b03808316600090815260016020526040808220548151633fabe5a360e21b81529151929316918391839163feaf968c9160048082019260a0929091908290030181865afa158015610633573d6000803e3d6000fd5b505050506040513d601f19601f820116820180604052508101906106579190610d39565b505050915050670de0b6b3a7640000846402540be400836106789190610c82565b6105c29190610c82565b80806000036106a45760405163cb1d3f7d60e01b815260040160405180910390fd5b6106ac6107f9565b33600090815260036020526040812080548492906106cb908490610cbb565b909155506106da905033610b15565b6040516340c10f1960e01b8152336004820152602481018390526000907f00000000000000000000000000000000000000000000000000000000000000006001600160a01b0316906340c10f19906044016020604051808303816000875af115801561074a573d6000803e3d6000fd5b505050506040513d601f19601f8201168201806040525081019061076e9190610cfd565b90508061078e576040516330eb0fc960e01b815260040160405180910390fd5b506107996001600055565b5050565b6107a78383610398565b61039381610682565b6107b9816107c3565b610393838361034a565b80806000036107e55760405163cb1d3f7d60e01b815260040160405180910390fd5b6107f08233336109aa565b61079933610b15565b60026000540361081c57604051633ee5aeb560e01b815260040160405180910390fd5b6002600055565b600080600061083184610b52565b909250905060006064610845603284610c82565b61084f9190610c99565b905082610864670de0b6b3a764000083610c82565b61086e9190610c99565b95945050505050565b6001600160a01b038083166000908152600260209081526040808320938816835292905290812080548592906108ae908490610d89565b92505081905550836001600160a01b0316816001600160a01b0316836001600160a01b03167fb292db12b8dfa23b760ee5e3bd1d3be184cd8f0eeeacd27ce120d4de4e4721f68660405161090491815260200190565b60405180910390a460405163a9059cbb60e01b81526001600160a01b038281166004830152602482018590526000919086169063a9059cbb906044016020604051808303816000875af115801561095f573d6000803e3d6000fd5b505050506040513d601f19601f820116820180604052508101906109839190610cfd565b9050806109a357604051634dc34d1760e01b815260040160405180910390fd5b5050505050565b6001600160a01b038216600090815260036020526040812080548592906109d2908490610d89565b90915550506040516323b872dd60e01b81526001600160a01b038281166004830152306024830152604482018590526000917f0000000000000000000000000000000000000000000000000000000000000000909116906323b872dd906064016020604051808303816000875af1158015610a51573d6000803e3d6000fd5b505050506040513d601f19601f82011682018060405250810190610a759190610cfd565b905080610a9557604051634dc34d1760e01b815260040160405180910390fd5b604051630852cd8d60e31b8152600481018590527f00000000000000000000000000000000000000000000000000000000000000006001600160a01b0316906342966c6890602401600060405180830381600087803b158015610af757600080fd5b505af1158015610b0b573d6000803e3d6000fd5b5050505050505050565b6000610b2082610823565b9050670de0b6b3a76400008110156107995760405163e580cc6160e01b81526004810182905260240160405180910390fd5b6001600160a01b03811660009081526003602052604081205490610b75836102c2565b9050915091565b80356001600160a01b0381168114610b9357600080fd5b919050565b600080600060608486031215610bad57600080fd5b610bb684610b7c565b9250610bc460208501610b7c565b9150604084013590509250925092565b600060208284031215610be657600080fd5b610bef82610b7c565b9392505050565b60008060408385031215610c0957600080fd5b610c1283610b7c565b946020939093013593505050565b600060208284031215610c3257600080fd5b5035919050565b600080600060608486031215610c4e57600080fd5b610c5784610b7c565b95602085013595506040909401359392505050565b634e487b7160e01b600052601160045260246000fd5b80820281158282048414176105d1576105d1610c6c565b600082610cb657634e487b7160e01b600052601260045260246000fd5b500490565b808201808211156105d1576105d1610c6c565b634e487b7160e01b600052603260045260246000fd5b600060018201610cf657610cf6610c6c565b5060010190565b600060208284031215610d0f57600080fd5b81518015158114610bef57600080fd5b805169ffffffffffffffffffff81168114610b9357600080fd5b600080600080600060a08688031215610d5157600080fd5b610d5a86610d1f565b9450602086015193506040860151925060608601519150610d7d60808701610d1f565b90509295509295909350565b818103818111156105d1576105d1610c6c56fea264697066735822122040c428b1822863ec5324999423e461ff7a314a4e66c6fbfae179b1c82f77da4164736f6c63430008140033","linkReferences":{}},"methodIdentifiers":{"burnDsc(uint256)":"f6876608","depositCollateral(address,uint256)":"a5d5db0c","depositCollateralAndMintinDsc(address,uint256,uint256)":"f11d9454","getAccountCollateralValue(address)":"7d1a4450","getAccountInformation(address)":"7be564fc","getHealthFactor()":"a5f352b7","getTokenAmountFromUsd(address,uint256)":"afea2e48","getUsdValue(address,uint256)":"c660d112","liquidate(address,address,uint256)":"26c01303","mintDsc(uint256)":"c9b7c327","redeemCollateral(address,uint256)":"9acd81b3","redeemCollateralForDsc(address,uint256,uint256)":"f419ea9c"},"id":36}