{"abi":[{"type":"constructor","inputs":[{"name":"tokenAddresses","type":"address[]","internalType":"address[]"},{"name":"priceFeedAddress","type":"address[]","internalType":"address[]"},{"name":"dscAddress","type":"address","internalType":"address"}],"stateMutability":"nonpayable"},{"type":"function","name":"burnDsc","inputs":[],"outputs":[],"stateMutability":"nonpayable"},{"type":"function","name":"depositCollateral","inputs":[{"name":"tokenCollateralAddress","type":"address","internalType":"address"},{"name":"amountCollateral","type":"uint256","internalType":"uint256"}],"outputs":[],"stateMutability":"nonpayable"},{"type":"function","name":"depositCollateralAndMintinDsc","inputs":[],"outputs":[],"stateMutability":"nonpayable"},{"type":"function","name":"getAccountCollateralValue","inputs":[{"name":"user","type":"address","internalType":"address"}],"outputs":[{"name":"totalCollateralValueInUsd","type":"uint256","internalType":"uint256"}],"stateMutability":"view"},{"type":"function","name":"getHealthFactor","inputs":[],"outputs":[],"stateMutability":"view"},{"type":"function","name":"getUsdValue","inputs":[{"name":"token","type":"address","internalType":"address"},{"name":"amount","type":"uint256","internalType":"uint256"}],"outputs":[{"name":"","type":"uint256","internalType":"uint256"}],"stateMutability":"view"},{"type":"function","name":"liquidate","inputs":[],"outputs":[],"stateMutability":"nonpayable"},{"type":"function","name":"mintDsc","inputs":[{"name":"amountDscToMint","type":"uint256","internalType":"uint256"}],"outputs":[],"stateMutability":"nonpayable"},{"type":"function","name":"redeemCollateral","inputs":[],"outputs":[],"stateMutability":"nonpayable"},{"type":"function","name":"redeemCollateralForDsc","inputs":[],"outputs":[],"stateMutability":"nonpayable"},{"type":"event","name":"CollateralDeposited","inputs":[{"name":"user","type":"address","indexed":true,"internalType":"address"},{"name":"token","type":"address","indexed":true,"internalType":"address"},{"name":"amount","type":"uint256","indexed":false,"internalType":"uint256"}],"anonymous":false},{"type":"error","name":"DSCEngine__BreaksHealthFactor","inputs":[{"name":"healthFactorValue","type":"uint256","internalType":"uint256"}]},{"type":"error","name":"DSCEngine__NeedsMoreThanZero","inputs":[]},{"type":"error","name":"DSCEngine__NotAllowedToken","inputs":[]},{"type":"error","name":"DSCEngine__TokenAddressesAndPriceFeedAddressesMustBeSameLength","inputs":[]},{"type":"error","name":"DSCEngine__TransferFailed","inputs":[]},{"type":"error","name":"ReentrancyGuardReentrantCall","inputs":[]}],"bytecode":{"object":"0x60a06040523480156200001157600080fd5b5060405162000a0538038062000a05833981016040819052620000349162000248565b600160005581518351146200005c57604051635ae2e09360e11b815260040160405180910390fd5b60005b835181101562000152578281815181106200007e576200007e620002c4565b6020026020010151600160008684815181106200009f576200009f620002c4565b60200260200101516001600160a01b03166001600160a01b0316815260200190815260200160002060006101000a8154816001600160a01b0302191690836001600160a01b031602179055506004848281518110620001025762000102620002c4565b60209081029190910181015182546001810184556000938452919092200180546001600160a01b0319166001600160a01b03909216919091179055806200014981620002da565b9150506200005f565b506001600160a01b031660805250620003029050565b634e487b7160e01b600052604160045260246000fd5b80516001600160a01b03811681146200019657600080fd5b919050565b600082601f830112620001ad57600080fd5b815160206001600160401b0380831115620001cc57620001cc62000168565b8260051b604051601f19603f83011681018181108482111715620001f457620001f462000168565b6040529384528581018301938381019250878511156200021357600080fd5b83870191505b848210156200023d576200022d826200017e565b8352918301919083019062000219565b979650505050505050565b6000806000606084860312156200025e57600080fd5b83516001600160401b03808211156200027657600080fd5b62000284878388016200019b565b945060208601519150808211156200029b57600080fd5b50620002aa868287016200019b565b925050620002bb604085016200017e565b90509250925092565b634e487b7160e01b600052603260045260246000fd5b600060018201620002fb57634e487b7160e01b600052601160045260246000fd5b5060010190565b6080516106ea6200031b600039600050506106ea6000f3fe608060405234801561001057600080fd5b506004361061009e5760003560e01c8063a653447011610066578063a6534470146100a3578063c660d112146100dd578063c9b7c327146100f0578063d9848c4b146100a3578063ffde1fba146100a357600080fd5b806328a07025146100a35780637d1a4450146100a55780639e297554146100a3578063a5d5db0c146100ca578063a5f352b7146100a3575b600080fd5b005b6100b86100b3366004610532565b610103565b60405190815260200160405180910390f35b6100a36100d8366004610554565b61018b565b6100b86100eb366004610554565b610312565b6100a36100fe36600461057e565b6103d2565b6000805b6004548110156101855760006004828154811061012657610126610597565b60009182526020808320909101546001600160a01b038781168452600283526040808520919092168085529252909120549091506101648282610312565b61016e90856105c3565b93505050808061017d906105d6565b915050610107565b50919050565b80806000036101ad5760405163cb1d3f7d60e01b815260040160405180910390fd5b6001600160a01b038084166000908152600160205260409020548491166101e75760405163540167df60e11b815260040160405180910390fd5b6101ef610438565b3360009081526002602090815260408083206001600160a01b0388168452909152812080548592906102229084906105c3565b90915550506040518381526001600160a01b0385169033907ff1c0dd7e9b98bbff859029005ef89b127af049cd18df1a8d79f0b7e019911e569060200160405180910390a36040516323b872dd60e01b8152336004820152306024820152604481018490526000906001600160a01b038616906323b872dd906064016020604051808303816000875af11580156102bd573d6000803e3d6000fd5b505050506040513d601f19601f820116820180604052508101906102e191906105ef565b90508061030157604051634dc34d1760e01b815260040160405180910390fd5b5061030c6001600055565b50505050565b6001600160a01b03808316600090815260016020526040808220548151633fabe5a360e21b81529151929316918391839163feaf968c9160048082019260a0929091908290030181865afa15801561036e573d6000803e3d6000fd5b505050506040513d601f19601f82011682018060405250810190610392919061062b565b505050915050670de0b6b3a7640000846402540be400836103b3919061067b565b6103bd919061067b565b6103c79190610692565b925050505b92915050565b80806000036103f45760405163cb1d3f7d60e01b815260040160405180910390fd5b6103fc610438565b336000908152600360205260408120805484929061041b9084906105c3565b9091555061042a905033610462565b6104346001600055565b5050565b60026000540361045b57604051633ee5aeb560e01b815260040160405180910390fd5b6002600055565b600061046d82610498565b905060018110156104345760405163e580cc6160e01b81526004810182905260240160405180910390fd5b60008060006104a6846104ec565b9092509050600060646104ba60328461067b565b6104c49190610692565b9050826104d9670de0b6b3a76400008361067b565b6104e39190610692565b95945050505050565b6001600160a01b0381166000908152600360205260408120549061050f83610103565b9050915091565b80356001600160a01b038116811461052d57600080fd5b919050565b60006020828403121561054457600080fd5b61054d82610516565b9392505050565b6000806040838503121561056757600080fd5b61057083610516565b946020939093013593505050565b60006020828403121561059057600080fd5b5035919050565b634e487b7160e01b600052603260045260246000fd5b634e487b7160e01b600052601160045260246000fd5b808201808211156103cc576103cc6105ad565b6000600182016105e8576105e86105ad565b5060010190565b60006020828403121561060157600080fd5b8151801515811461054d57600080fd5b805169ffffffffffffffffffff8116811461052d57600080fd5b600080600080600060a0868803121561064357600080fd5b61064c86610611565b945060208601519350604086015192506060860151915061066f60808701610611565b90509295509295909350565b80820281158282048414176103cc576103cc6105ad565b6000826106af57634e487b7160e01b600052601260045260246000fd5b50049056fea26469706673582212201c841b2ba16ec8f987b78aae8b21fb2a6ec482c859dc6c4f193f993f0337fd2c64736f6c63430008140033","linkReferences":{}},"methodIdentifiers":{"burnDsc()":"ffde1fba","depositCollateral(address,uint256)":"a5d5db0c","depositCollateralAndMintinDsc()":"d9848c4b","getAccountCollateralValue(address)":"7d1a4450","getHealthFactor()":"a5f352b7","getUsdValue(address,uint256)":"c660d112","liquidate()":"28a07025","mintDsc(uint256)":"c9b7c327","redeemCollateral()":"a6534470","redeemCollateralForDsc()":"9e297554"},"id":9}