{"abi":[{"type":"constructor","inputs":[{"name":"tokenAddresses","type":"address[]","internalType":"address[]"},{"name":"priceFeedAddress","type":"address[]","internalType":"address[]"},{"name":"dscAddress","type":"address","internalType":"address"}],"stateMutability":"nonpayable"},{"type":"function","name":"burnDsc","inputs":[{"name":"amount","type":"uint256","internalType":"uint256"}],"outputs":[],"stateMutability":"nonpayable"},{"type":"function","name":"calculateHealthFactor","inputs":[{"name":"totalDscMinted","type":"uint256","internalType":"uint256"},{"name":"collateralValueInUsd","type":"uint256","internalType":"uint256"}],"outputs":[{"name":"","type":"uint256","internalType":"uint256"}],"stateMutability":"pure"},{"type":"function","name":"depositCollateral","inputs":[{"name":"tokenCollateralAddress","type":"address","internalType":"address"},{"name":"amountCollateral","type":"uint256","internalType":"uint256"}],"outputs":[],"stateMutability":"nonpayable"},{"type":"function","name":"depositCollateralAndMintDsc","inputs":[{"name":"tokenCollateralAddress","type":"address","internalType":"address"},{"name":"amountCollateral","type":"uint256","internalType":"uint256"},{"name":"amountDscToMint","type":"uint256","internalType":"uint256"}],"outputs":[],"stateMutability":"nonpayable"},{"type":"function","name":"getAccountCollateralValue","inputs":[{"name":"user","type":"address","internalType":"address"}],"outputs":[{"name":"totalCollateralValueInUsd","type":"uint256","internalType":"uint256"}],"stateMutability":"view"},{"type":"function","name":"getAccountInformation","inputs":[{"name":"user","type":"address","internalType":"address"}],"outputs":[{"name":"totalDscMinted","type":"uint256","internalType":"uint256"},{"name":"collateralValueInUsd","type":"uint256","internalType":"uint256"}],"stateMutability":"view"},{"type":"function","name":"getAdditionalFeedPrecision","inputs":[],"outputs":[{"name":"","type":"uint256","internalType":"uint256"}],"stateMutability":"pure"},{"type":"function","name":"getCollateralBalanceOfUser","inputs":[{"name":"user","type":"address","internalType":"address"},{"name":"token","type":"address","internalType":"address"}],"outputs":[{"name":"","type":"uint256","internalType":"uint256"}],"stateMutability":"view"},{"type":"function","name":"getCollateralTokenPriceFeed","inputs":[{"name":"token","type":"address","internalType":"address"}],"outputs":[{"name":"","type":"address","internalType":"address"}],"stateMutability":"view"},{"type":"function","name":"getCollateralTokens","inputs":[],"outputs":[{"name":"","type":"address[]","internalType":"address[]"}],"stateMutability":"view"},{"type":"function","name":"getDsc","inputs":[],"outputs":[{"name":"","type":"address","internalType":"address"}],"stateMutability":"view"},{"type":"function","name":"getHealthFactor","inputs":[{"name":"user","type":"address","internalType":"address"}],"outputs":[{"name":"","type":"uint256","internalType":"uint256"}],"stateMutability":"view"},{"type":"function","name":"getLiquidationBonus","inputs":[],"outputs":[{"name":"","type":"uint256","internalType":"uint256"}],"stateMutability":"pure"},{"type":"function","name":"getLiquidationPrecision","inputs":[],"outputs":[{"name":"","type":"uint256","internalType":"uint256"}],"stateMutability":"pure"},{"type":"function","name":"getLiquidationThreshold","inputs":[],"outputs":[{"name":"","type":"uint256","internalType":"uint256"}],"stateMutability":"pure"},{"type":"function","name":"getMinHealthFactor","inputs":[],"outputs":[{"name":"","type":"uint256","internalType":"uint256"}],"stateMutability":"pure"},{"type":"function","name":"getPrecision","inputs":[],"outputs":[{"name":"","type":"uint256","internalType":"uint256"}],"stateMutability":"pure"},{"type":"function","name":"getTokenAmountFromUsd","inputs":[{"name":"token","type":"address","internalType":"address"},{"name":"usdAmountInWei","type":"uint256","internalType":"uint256"}],"outputs":[{"name":"","type":"uint256","internalType":"uint256"}],"stateMutability":"view"},{"type":"function","name":"getUsdValue","inputs":[{"name":"token","type":"address","internalType":"address"},{"name":"amount","type":"uint256","internalType":"uint256"}],"outputs":[{"name":"","type":"uint256","internalType":"uint256"}],"stateMutability":"view"},{"type":"function","name":"liquidate","inputs":[{"name":"collateral","type":"address","internalType":"address"},{"name":"user","type":"address","internalType":"address"},{"name":"debtToCover","type":"uint256","internalType":"uint256"}],"outputs":[],"stateMutability":"nonpayable"},{"type":"function","name":"mintDsc","inputs":[{"name":"amountDscToMint","type":"uint256","internalType":"uint256"}],"outputs":[],"stateMutability":"nonpayable"},{"type":"function","name":"redeemCollateral","inputs":[{"name":"tokenCollateralAddress","type":"address","internalType":"address"},{"name":"amountCollateral","type":"uint256","internalType":"uint256"}],"outputs":[],"stateMutability":"nonpayable"},{"type":"function","name":"redeemCollateralForDsc","inputs":[{"name":"tokenCollateralAddress","type":"address","internalType":"address"},{"name":"amountCollateral","type":"uint256","internalType":"uint256"},{"name":"amountDscToBurn","type":"uint256","internalType":"uint256"}],"outputs":[],"stateMutability":"nonpayable"},{"type":"event","name":"CollateralDeposited","inputs":[{"name":"user","type":"address","indexed":true,"internalType":"address"},{"name":"token","type":"address","indexed":true,"internalType":"address"},{"name":"amount","type":"uint256","indexed":false,"internalType":"uint256"}],"anonymous":false},{"type":"event","name":"CollateralRedeemed","inputs":[{"name":"redeemedFrom","type":"address","indexed":true,"internalType":"address"},{"name":"redeemedTo","type":"address","indexed":true,"internalType":"address"},{"name":"token","type":"address","indexed":true,"internalType":"address"},{"name":"amount","type":"uint256","indexed":false,"internalType":"uint256"}],"anonymous":false},{"type":"error","name":"DSCEngine__BreaksHealthFactor","inputs":[{"name":"healthFactorValue","type":"uint256","internalType":"uint256"}]},{"type":"error","name":"DSCEngine__HealthFactorNotImproved","inputs":[]},{"type":"error","name":"DSCEngine__HealthFactorOk","inputs":[]},{"type":"error","name":"DSCEngine__MintFailed","inputs":[]},{"type":"error","name":"DSCEngine__NeedsMoreThanZero","inputs":[]},{"type":"error","name":"DSCEngine__NotAllowedToken","inputs":[]},{"type":"error","name":"DSCEngine__TokenAddressesAndPriceFeedAddressesAmountsDontMatch","inputs":[]},{"type":"error","name":"DSCEngine__TransferFailed","inputs":[]},{"type":"error","name":"ReentrancyGuardReentrantCall","inputs":[]}],"bytecode":{"object":"0x60a06040523480156200001157600080fd5b50604051620014be380380620014be833981016040819052620000349162000248565b600160005581518351146200005c57604051631d8bb3e760e11b815260040160405180910390fd5b60005b835181101562000152578281815181106200007e576200007e620002c4565b6020026020010151600160008684815181106200009f576200009f620002c4565b60200260200101516001600160a01b03166001600160a01b0316815260200190815260200160002060006101000a8154816001600160a01b0302191690836001600160a01b031602179055506004848281518110620001025762000102620002c4565b60209081029190910181015182546001810184556000938452919092200180546001600160a01b0319166001600160a01b03909216919091179055806200014981620002da565b9150506200005f565b506001600160a01b031660805250620003029050565b634e487b7160e01b600052604160045260246000fd5b80516001600160a01b03811681146200019657600080fd5b919050565b600082601f830112620001ad57600080fd5b815160206001600160401b0380831115620001cc57620001cc62000168565b8260051b604051601f19603f83011681018181108482111715620001f457620001f462000168565b6040529384528581018301938381019250878511156200021357600080fd5b83870191505b848210156200023d576200022d826200017e565b8352918301919083019062000219565b979650505050505050565b6000806000606084860312156200025e57600080fd5b83516001600160401b03808211156200027657600080fd5b62000284878388016200019b565b945060208601519150808211156200029b57600080fd5b50620002aa868287016200019b565b925050620002bb604085016200017e565b90509250925092565b634e487b7160e01b600052603260045260246000fd5b600060018201620002fb57634e487b7160e01b600052601160045260246000fd5b5060010190565b60805161118b62000333600039600081816102e9015281816108bd01528181610c5e0152610d03015261118b6000f3fe608060405234801561001057600080fd5b506004361061014d5760003560e01c80639670c0bc116100c3578063c9b7c3271161007c578063c9b7c327146102d4578063deb8e018146102e7578063e90db8a31461030d578063f419ea9c14610320578063f687660814610333578063fe6bcd7c1461034657600080fd5b80639670c0bc1461025a5780639acd81b314610273578063a5d5db0c14610286578063afea2e4814610299578063b58eb63f146102ac578063c660d112146102c157600080fd5b806359aa9e721161011557806359aa9e72146102115780636c8102c0146102185780637be564fc1461021f5780637d1a4450146102475780638c1ae6c81461025a5780638f63d6671461026857600080fd5b806301f72884146101525780631c08adda1461017857806326c01303146101bc57806331e92b83146101d15780634ae9b8bc1461020a575b600080fd5b610165610160366004610e93565b610359565b6040519081526020015b60405180910390f35b6101a4610186366004610ed1565b6001600160a01b039081166000908152600160205260409020541690565b6040516001600160a01b03909116815260200161016f565b6101cf6101ca366004610eec565b61036e565b005b6101656101df366004610f28565b6001600160a01b03918216600090815260026020908152604080832093909416825291909152205490565b6032610165565b600a610165565b6064610165565b61023261022d366004610ed1565b610460565b6040805192835260208301919091520161016f565b610165610255366004610ed1565b610475565b670de0b6b3a7640000610165565b6402540be400610165565b6101cf610281366004610f5b565b6104fd565b6101cf610294366004610f5b565b610586565b6101656102a7366004610f5b565b610708565b6102b46107d8565b60405161016f9190610f85565b6101656102cf366004610f5b565b61083a565b6101cf6102e2366004610fd2565b610846565b7f00000000000000000000000000000000000000000000000000000000000000006101a4565b6101cf61031b366004610feb565b610966565b6101cf61032e366004610feb565b610979565b6101cf610341366004610fd2565b6109fc565b610165610354366004610ed1565b610a32565b60006103658383610a3d565b90505b92915050565b80806000036103905760405163cb1d3f7d60e01b815260040160405180910390fd5b610398610a90565b60006103a384610aba565b9050670de0b6b3a764000081106103cd5760405163032c072f60e41b815260040160405180910390fd5b60006103d98685610708565b9050600060646103ea600a84611034565b6103f4919061104b565b905061040b87610404838561106d565b8833610ad6565b610416858733610c02565b600061042187610aba565b9050838111610443576040516303e141b160e51b815260040160405180910390fd5b61044c33610d6d565b5050505061045a6001600055565b50505050565b60008061046c83610daa565b91509150915091565b6000805b6004548110156104f75760006004828154811061049857610498611080565b60009182526020808320909101546001600160a01b038781168452600283526040808520919092168085529252909120549091506104d68282610dd4565b6104e0908561106d565b9350505080806104ef90611096565b915050610479565b50919050565b808060000361051f5760405163cb1d3f7d60e01b815260040160405180910390fd5b610527610a90565b6001600160a01b038084166000908152600160205260409020548491166105615760405163540167df60e11b815260040160405180910390fd5b61056d84843333610ad6565b61057633610d6d565b506105816001600055565b505050565b80806000036105a85760405163cb1d3f7d60e01b815260040160405180910390fd5b6105b0610a90565b6001600160a01b038084166000908152600160205260409020548491166105ea5760405163540167df60e11b815260040160405180910390fd5b3360009081526002602090815260408083206001600160a01b03881684529091528120805485929061061d90849061106d565b90915550506040518381526001600160a01b0385169033907ff1c0dd7e9b98bbff859029005ef89b127af049cd18df1a8d79f0b7e019911e569060200160405180910390a36040516323b872dd60e01b8152336004820152306024820152604481018490526000906001600160a01b038616906323b872dd906064016020604051808303816000875af11580156106b8573d6000803e3d6000fd5b505050506040513d601f19601f820116820180604052508101906106dc91906110af565b9050806106fc57604051634dc34d1760e01b815260040160405180910390fd5b50506105816001600055565b6001600160a01b038281166000908152600160205260408082205490516315d0e4b560e11b81529216600483018190529091829073__$1f06ac8d622ce42796cee98ba1044ce165$__90632ba1c96a9060240160a060405180830381865af4158015610778573d6000803e3d6000fd5b505050506040513d601f19601f8201168201806040525081019061079c91906110f2565b5050509150506402540be400816107b39190611034565b6107c5670de0b6b3a764000086611034565b6107cf919061104b565b95945050505050565b6060600480548060200260200160405190810160405280929190818152602001828054801561083057602002820191906000526020600020905b81546001600160a01b03168152600190910190602001808311610812575b5050505050905090565b60006103658383610dd4565b80806000036108685760405163cb1d3f7d60e01b815260040160405180910390fd5b610870610a90565b336000908152600360205260408120805484929061088f90849061106d565b9091555061089e905033610d6d565b6040516340c10f1960e01b8152336004820152602481018390526000907f00000000000000000000000000000000000000000000000000000000000000006001600160a01b0316906340c10f19906044016020604051808303816000875af115801561090e573d6000803e3d6000fd5b505050506040513d601f19601f8201168201806040525081019061093291906110af565b9050600181151514610957576040516330eb0fc960e01b815260040160405180910390fd5b506109626001600055565b5050565b6109708383610586565b61058181610846565b818060000361099b5760405163cb1d3f7d60e01b815260040160405180910390fd5b6001600160a01b038085166000908152600160205260409020548591166109d55760405163540167df60e11b815260040160405180910390fd5b6109e0833333610c02565b6109ec85853333610ad6565b6109f533610d6d565b5050505050565b8080600003610a1e5760405163cb1d3f7d60e01b815260040160405180910390fd5b610a29823333610c02565b61096233610d6d565b600061036882610aba565b600082600003610a505750600019610368565b60006064610a5f603285611034565b610a69919061104b565b905083610a7e670de0b6b3a764000083611034565b610a88919061104b565b949350505050565b600260005403610ab357604051633ee5aeb560e01b815260040160405180910390fd5b6002600055565b6000806000610ac884610daa565b91509150610a888282610a3d565b6001600160a01b03808316600090815260026020908152604080832093881683529290529081208054859290610b0d908490611142565b92505081905550836001600160a01b0316816001600160a01b0316836001600160a01b03167fb292db12b8dfa23b760ee5e3bd1d3be184cd8f0eeeacd27ce120d4de4e4721f686604051610b6391815260200190565b60405180910390a460405163a9059cbb60e01b81526001600160a01b038281166004830152602482018590526000919086169063a9059cbb906044016020604051808303816000875af1158015610bbe573d6000803e3d6000fd5b505050506040513d601f19601f82011682018060405250810190610be291906110af565b9050806109f557604051634dc34d1760e01b815260040160405180910390fd5b6001600160a01b03821660009081526003602052604081208054859290610c2a908490611142565b90915550506040516323b872dd60e01b81526001600160a01b038281166004830152306024830152604482018590526000917f0000000000000000000000000000000000000000000000000000000000000000909116906323b872dd906064016020604051808303816000875af1158015610ca9573d6000803e3d6000fd5b505050506040513d601f19601f82011682018060405250810190610ccd91906110af565b905080610ced57604051634dc34d1760e01b815260040160405180910390fd5b604051630852cd8d60e31b8152600481018590527f00000000000000000000000000000000000000000000000000000000000000006001600160a01b0316906342966c6890602401600060405180830381600087803b158015610d4f57600080fd5b505af1158015610d63573d6000803e3d6000fd5b5050505050505050565b6000610d7882610aba565b9050670de0b6b3a76400008110156109625760405163e580cc6160e01b81526004810182905260240160405180910390fd5b6001600160a01b03811660009081526003602052604081205490610dcd83610475565b9050915091565b6001600160a01b038281166000908152600160205260408082205490516315d0e4b560e11b81529216600483018190529091829073__$1f06ac8d622ce42796cee98ba1044ce165$__90632ba1c96a9060240160a060405180830381865af4158015610e44573d6000803e3d6000fd5b505050506040513d601f19601f82011682018060405250810190610e6891906110f2565b505050915050670de0b6b3a7640000846402540be40083610e899190611034565b6107c59190611034565b60008060408385031215610ea657600080fd5b50508035926020909101359150565b80356001600160a01b0381168114610ecc57600080fd5b919050565b600060208284031215610ee357600080fd5b61036582610eb5565b600080600060608486031215610f0157600080fd5b610f0a84610eb5565b9250610f1860208501610eb5565b9150604084013590509250925092565b60008060408385031215610f3b57600080fd5b610f4483610eb5565b9150610f5260208401610eb5565b90509250929050565b60008060408385031215610f6e57600080fd5b610f7783610eb5565b946020939093013593505050565b6020808252825182820181905260009190848201906040850190845b81811015610fc65783516001600160a01b031683529284019291840191600101610fa1565b50909695505050505050565b600060208284031215610fe457600080fd5b5035919050565b60008060006060848603121561100057600080fd5b61100984610eb5565b95602085013595506040909401359392505050565b634e487b7160e01b600052601160045260246000fd5b80820281158282048414176103685761036861101e565b60008261106857634e487b7160e01b600052601260045260246000fd5b500490565b808201808211156103685761036861101e565b634e487b7160e01b600052603260045260246000fd5b6000600182016110a8576110a861101e565b5060010190565b6000602082840312156110c157600080fd5b815180151581146110d157600080fd5b9392505050565b805169ffffffffffffffffffff81168114610ecc57600080fd5b600080600080600060a0868803121561110a57600080fd5b611113866110d8565b9450602086015193506040860151925060608601519150611136608087016110d8565b90509295509295909350565b818103818111156103685761036861101e56fea2646970667358221220b8ee53c4449b22c635eca27ac349edebc96128bc1c34bf92ec1e3a6aa404e7db64736f6c63430008140033","linkReferences":{"src/libraries/OracleLib.sol":{"OracleLib":[{"start":2673,"length":20},{"start":4413,"length":20}]}}},"methodIdentifiers":{"burnDsc(uint256)":"f6876608","calculateHealthFactor(uint256,uint256)":"01f72884","depositCollateral(address,uint256)":"a5d5db0c","depositCollateralAndMintDsc(address,uint256,uint256)":"e90db8a3","getAccountCollateralValue(address)":"7d1a4450","getAccountInformation(address)":"7be564fc","getAdditionalFeedPrecision()":"8f63d667","getCollateralBalanceOfUser(address,address)":"31e92b83","getCollateralTokenPriceFeed(address)":"1c08adda","getCollateralTokens()":"b58eb63f","getDsc()":"deb8e018","getHealthFactor(address)":"fe6bcd7c","getLiquidationBonus()":"59aa9e72","getLiquidationPrecision()":"6c8102c0","getLiquidationThreshold()":"4ae9b8bc","getMinHealthFactor()":"8c1ae6c8","getPrecision()":"9670c0bc","getTokenAmountFromUsd(address,uint256)":"afea2e48","getUsdValue(address,uint256)":"c660d112","liquidate(address,address,uint256)":"26c01303","mintDsc(uint256)":"c9b7c327","redeemCollateral(address,uint256)":"9acd81b3","redeemCollateralForDsc(address,uint256,uint256)":"f419ea9c"},"id":36}