{"abi":[{"type":"constructor","inputs":[{"name":"tokenAddresses","type":"address[]","internalType":"address[]"},{"name":"priceFeedAddress","type":"address[]","internalType":"address[]"},{"name":"dscAddress","type":"address","internalType":"address"}],"stateMutability":"nonpayable"},{"type":"function","name":"burnDsc","inputs":[],"outputs":[],"stateMutability":"nonpayable"},{"type":"function","name":"depositCollateral","inputs":[{"name":"tokenCollateralAddress","type":"address","internalType":"address"},{"name":"amountCollateral","type":"uint256","internalType":"uint256"}],"outputs":[],"stateMutability":"nonpayable"},{"type":"function","name":"depositCollateralAndMintinDsc","inputs":[],"outputs":[],"stateMutability":"nonpayable"},{"type":"function","name":"getAccountCollateralValue","inputs":[{"name":"user","type":"address","internalType":"address"}],"outputs":[{"name":"totalCollateralValueInUsd","type":"uint256","internalType":"uint256"}],"stateMutability":"view"},{"type":"function","name":"getHealthFactor","inputs":[],"outputs":[],"stateMutability":"view"},{"type":"function","name":"getUsdValue","inputs":[{"name":"token","type":"address","internalType":"address"},{"name":"amount","type":"uint256","internalType":"uint256"}],"outputs":[{"name":"","type":"uint256","internalType":"uint256"}],"stateMutability":"view"},{"type":"function","name":"liquidate","inputs":[],"outputs":[],"stateMutability":"nonpayable"},{"type":"function","name":"mintDsc","inputs":[{"name":"amountDscToMint","type":"uint256","internalType":"uint256"}],"outputs":[],"stateMutability":"nonpayable"},{"type":"function","name":"redeemCollateral","inputs":[],"outputs":[],"stateMutability":"nonpayable"},{"type":"function","name":"redeemCollateralForDsc","inputs":[],"outputs":[],"stateMutability":"nonpayable"},{"type":"event","name":"CollateralDeposited","inputs":[{"name":"user","type":"address","indexed":true,"internalType":"address"},{"name":"token","type":"address","indexed":true,"internalType":"address"},{"name":"amount","type":"uint256","indexed":false,"internalType":"uint256"}],"anonymous":false},{"type":"error","name":"DSCEngine__BreaksHealthFactor","inputs":[{"name":"healthFactorValue","type":"uint256","internalType":"uint256"}]},{"type":"error","name":"DSCEngine__MintFailed","inputs":[]},{"type":"error","name":"DSCEngine__NeedsMoreThanZero","inputs":[]},{"type":"error","name":"DSCEngine__NotAllowedToken","inputs":[]},{"type":"error","name":"DSCEngine__TokenAddressesAndPriceFeedAddressesMustBeSameLength","inputs":[]},{"type":"error","name":"DSCEngine__TransferFailed","inputs":[]},{"type":"error","name":"ReentrancyGuardReentrantCall","inputs":[]}],"bytecode":{"object":"0x60a06040523480156200001157600080fd5b5060405162000abd38038062000abd833981016040819052620000349162000248565b600160005581518351146200005c57604051635ae2e09360e11b815260040160405180910390fd5b60005b835181101562000152578281815181106200007e576200007e620002c4565b6020026020010151600160008684815181106200009f576200009f620002c4565b60200260200101516001600160a01b03166001600160a01b0316815260200190815260200160002060006101000a8154816001600160a01b0302191690836001600160a01b031602179055506004848281518110620001025762000102620002c4565b60209081029190910181015182546001810184556000938452919092200180546001600160a01b0319166001600160a01b03909216919091179055806200014981620002da565b9150506200005f565b506001600160a01b031660805250620003029050565b634e487b7160e01b600052604160045260246000fd5b80516001600160a01b03811681146200019657600080fd5b919050565b600082601f830112620001ad57600080fd5b815160206001600160401b0380831115620001cc57620001cc62000168565b8260051b604051601f19603f83011681018181108482111715620001f457620001f462000168565b6040529384528581018301938381019250878511156200021357600080fd5b83870191505b848210156200023d576200022d826200017e565b8352918301919083019062000219565b979650505050505050565b6000806000606084860312156200025e57600080fd5b83516001600160401b03808211156200027657600080fd5b62000284878388016200019b565b945060208601519150808211156200029b57600080fd5b50620002aa868287016200019b565b925050620002bb604085016200017e565b90509250925092565b634e487b7160e01b600052603260045260246000fd5b600060018201620002fb57634e487b7160e01b600052601160045260246000fd5b5060010190565b60805161079f6200031e6000396000610449015261079f6000f3fe608060405234801561001057600080fd5b506004361061009e5760003560e01c8063a653447011610066578063a6534470146100a3578063c660d112146100dd578063c9b7c327146100f0578063d9848c4b146100a3578063ffde1fba146100a357600080fd5b806328a07025146100a35780637d1a4450146100a55780639e297554146100a3578063a5d5db0c146100ca578063a5f352b7146100a3575b600080fd5b005b6100b86100b33660046105e7565b610103565b60405190815260200160405180910390f35b6100a36100d8366004610609565b61018b565b6100b86100eb366004610609565b610312565b6100a36100fe366004610633565b6103d2565b6000805b600454811015610185576000600482815481106101265761012661064c565b60009182526020808320909101546001600160a01b038781168452600283526040808520919092168085529252909120549091506101648282610312565b61016e9085610678565b93505050808061017d9061068b565b915050610107565b50919050565b80806000036101ad5760405163cb1d3f7d60e01b815260040160405180910390fd5b6001600160a01b038084166000908152600160205260409020548491166101e75760405163540167df60e11b815260040160405180910390fd5b6101ef6104ed565b3360009081526002602090815260408083206001600160a01b038816845290915281208054859290610222908490610678565b90915550506040518381526001600160a01b0385169033907ff1c0dd7e9b98bbff859029005ef89b127af049cd18df1a8d79f0b7e019911e569060200160405180910390a36040516323b872dd60e01b8152336004820152306024820152604481018490526000906001600160a01b038616906323b872dd906064016020604051808303816000875af11580156102bd573d6000803e3d6000fd5b505050506040513d601f19601f820116820180604052508101906102e191906106a4565b90508061030157604051634dc34d1760e01b815260040160405180910390fd5b5061030c6001600055565b50505050565b6001600160a01b03808316600090815260016020526040808220548151633fabe5a360e21b81529151929316918391839163feaf968c9160048082019260a0929091908290030181865afa15801561036e573d6000803e3d6000fd5b505050506040513d601f19601f8201168201806040525081019061039291906106e0565b505050915050670de0b6b3a7640000846402540be400836103b39190610730565b6103bd9190610730565b6103c79190610747565b925050505b92915050565b80806000036103f45760405163cb1d3f7d60e01b815260040160405180910390fd5b6103fc6104ed565b336000908152600360205260408120805484929061041b908490610678565b9091555061042a905033610517565b6040516340c10f1960e01b8152336004820152602481018390526000907f00000000000000000000000000000000000000000000000000000000000000006001600160a01b0316906340c10f19906044016020604051808303816000875af115801561049a573d6000803e3d6000fd5b505050506040513d601f19601f820116820180604052508101906104be91906106a4565b9050806104de576040516330eb0fc960e01b815260040160405180910390fd5b506104e96001600055565b5050565b60026000540361051057604051633ee5aeb560e01b815260040160405180910390fd5b6002600055565b60006105228261054d565b905060018110156104e95760405163e580cc6160e01b81526004810182905260240160405180910390fd5b600080600061055b846105a1565b90925090506000606461056f603284610730565b6105799190610747565b90508261058e670de0b6b3a764000083610730565b6105989190610747565b95945050505050565b6001600160a01b038116600090815260036020526040812054906105c483610103565b9050915091565b80356001600160a01b03811681146105e257600080fd5b919050565b6000602082840312156105f957600080fd5b610602826105cb565b9392505050565b6000806040838503121561061c57600080fd5b610625836105cb565b946020939093013593505050565b60006020828403121561064557600080fd5b5035919050565b634e487b7160e01b600052603260045260246000fd5b634e487b7160e01b600052601160045260246000fd5b808201808211156103cc576103cc610662565b60006001820161069d5761069d610662565b5060010190565b6000602082840312156106b657600080fd5b8151801515811461060257600080fd5b805169ffffffffffffffffffff811681146105e257600080fd5b600080600080600060a086880312156106f857600080fd5b610701866106c6565b9450602086015193506040860151925060608601519150610724608087016106c6565b90509295509295909350565b80820281158282048414176103cc576103cc610662565b60008261076457634e487b7160e01b600052601260045260246000fd5b50049056fea2646970667358221220bf7502a6bd95a0443e42191d2b28ebdb5f36a185e347ee037b043961d839ce3764736f6c63430008140033","linkReferences":{}},"methodIdentifiers":{"burnDsc()":"ffde1fba","depositCollateral(address,uint256)":"a5d5db0c","depositCollateralAndMintinDsc()":"d9848c4b","getAccountCollateralValue(address)":"7d1a4450","getHealthFactor()":"a5f352b7","getUsdValue(address,uint256)":"c660d112","liquidate()":"28a07025","mintDsc(uint256)":"c9b7c327","redeemCollateral()":"a6534470","redeemCollateralForDsc()":"9e297554"},"id":36}