{
  "contractName": "NftMarket",
  "abi": [
    {
      "inputs": [],
      "stateMutability": "nonpayable",
      "type": "constructor"
    },
    {
      "anonymous": false,
      "inputs": [
        {
          "indexed": true,
          "internalType": "address",
          "name": "owner",
          "type": "address"
        },
        {
          "indexed": true,
          "internalType": "address",
          "name": "approved",
          "type": "address"
        },
        {
          "indexed": true,
          "internalType": "uint256",
          "name": "tokenId",
          "type": "uint256"
        }
      ],
      "name": "Approval",
      "type": "event"
    },
    {
      "anonymous": false,
      "inputs": [
        {
          "indexed": true,
          "internalType": "address",
          "name": "owner",
          "type": "address"
        },
        {
          "indexed": true,
          "internalType": "address",
          "name": "operator",
          "type": "address"
        },
        {
          "indexed": false,
          "internalType": "bool",
          "name": "approved",
          "type": "bool"
        }
      ],
      "name": "ApprovalForAll",
      "type": "event"
    },
    {
      "anonymous": false,
      "inputs": [
        {
          "indexed": false,
          "internalType": "uint256",
          "name": "tokenId",
          "type": "uint256"
        },
        {
          "indexed": false,
          "internalType": "uint256",
          "name": "price",
          "type": "uint256"
        },
        {
          "indexed": false,
          "internalType": "address",
          "name": "creator",
          "type": "address"
        },
        {
          "indexed": false,
          "internalType": "bool",
          "name": "isListed",
          "type": "bool"
        }
      ],
      "name": "NftItemCreated",
      "type": "event"
    },
    {
      "anonymous": false,
      "inputs": [
        {
          "indexed": true,
          "internalType": "address",
          "name": "previousOwner",
          "type": "address"
        },
        {
          "indexed": true,
          "internalType": "address",
          "name": "newOwner",
          "type": "address"
        }
      ],
      "name": "OwnershipTransferred",
      "type": "event"
    },
    {
      "anonymous": false,
      "inputs": [
        {
          "indexed": true,
          "internalType": "address",
          "name": "from",
          "type": "address"
        },
        {
          "indexed": true,
          "internalType": "address",
          "name": "to",
          "type": "address"
        },
        {
          "indexed": true,
          "internalType": "uint256",
          "name": "tokenId",
          "type": "uint256"
        }
      ],
      "name": "Transfer",
      "type": "event"
    },
    {
      "inputs": [
        {
          "internalType": "address",
          "name": "to",
          "type": "address"
        },
        {
          "internalType": "uint256",
          "name": "tokenId",
          "type": "uint256"
        }
      ],
      "name": "approve",
      "outputs": [],
      "stateMutability": "nonpayable",
      "type": "function"
    },
    {
      "inputs": [
        {
          "internalType": "address",
          "name": "",
          "type": "address"
        }
      ],
      "name": "authorizedAddresses",
      "outputs": [
        {
          "internalType": "bool",
          "name": "",
          "type": "bool"
        }
      ],
      "stateMutability": "view",
      "type": "function",
      "constant": true
    },
    {
      "inputs": [
        {
          "internalType": "address",
          "name": "owner",
          "type": "address"
        }
      ],
      "name": "balanceOf",
      "outputs": [
        {
          "internalType": "uint256",
          "name": "",
          "type": "uint256"
        }
      ],
      "stateMutability": "view",
      "type": "function",
      "constant": true
    },
    {
      "inputs": [
        {
          "internalType": "uint256",
          "name": "tokenId",
          "type": "uint256"
        }
      ],
      "name": "getApproved",
      "outputs": [
        {
          "internalType": "address",
          "name": "",
          "type": "address"
        }
      ],
      "stateMutability": "view",
      "type": "function",
      "constant": true
    },
    {
      "inputs": [
        {
          "internalType": "address",
          "name": "owner",
          "type": "address"
        },
        {
          "internalType": "address",
          "name": "operator",
          "type": "address"
        }
      ],
      "name": "isApprovedForAll",
      "outputs": [
        {
          "internalType": "bool",
          "name": "",
          "type": "bool"
        }
      ],
      "stateMutability": "view",
      "type": "function",
      "constant": true
    },
    {
      "inputs": [],
      "name": "listingPrice",
      "outputs": [
        {
          "internalType": "uint256",
          "name": "",
          "type": "uint256"
        }
      ],
      "stateMutability": "view",
      "type": "function",
      "constant": true
    },
    {
      "inputs": [],
      "name": "name",
      "outputs": [
        {
          "internalType": "string",
          "name": "",
          "type": "string"
        }
      ],
      "stateMutability": "view",
      "type": "function",
      "constant": true
    },
    {
      "inputs": [],
      "name": "owner",
      "outputs": [
        {
          "internalType": "address",
          "name": "",
          "type": "address"
        }
      ],
      "stateMutability": "view",
      "type": "function",
      "constant": true
    },
    {
      "inputs": [
        {
          "internalType": "uint256",
          "name": "tokenId",
          "type": "uint256"
        }
      ],
      "name": "ownerOf",
      "outputs": [
        {
          "internalType": "address",
          "name": "",
          "type": "address"
        }
      ],
      "stateMutability": "view",
      "type": "function",
      "constant": true
    },
    {
      "inputs": [],
      "name": "renounceOwnership",
      "outputs": [],
      "stateMutability": "nonpayable",
      "type": "function"
    },
    {
      "inputs": [
        {
          "internalType": "address",
          "name": "from",
          "type": "address"
        },
        {
          "internalType": "address",
          "name": "to",
          "type": "address"
        },
        {
          "internalType": "uint256",
          "name": "tokenId",
          "type": "uint256"
        }
      ],
      "name": "safeTransferFrom",
      "outputs": [],
      "stateMutability": "nonpayable",
      "type": "function"
    },
    {
      "inputs": [
        {
          "internalType": "address",
          "name": "from",
          "type": "address"
        },
        {
          "internalType": "address",
          "name": "to",
          "type": "address"
        },
        {
          "internalType": "uint256",
          "name": "tokenId",
          "type": "uint256"
        },
        {
          "internalType": "bytes",
          "name": "_data",
          "type": "bytes"
        }
      ],
      "name": "safeTransferFrom",
      "outputs": [],
      "stateMutability": "nonpayable",
      "type": "function"
    },
    {
      "inputs": [
        {
          "internalType": "address",
          "name": "operator",
          "type": "address"
        },
        {
          "internalType": "bool",
          "name": "approved",
          "type": "bool"
        }
      ],
      "name": "setApprovalForAll",
      "outputs": [],
      "stateMutability": "nonpayable",
      "type": "function"
    },
    {
      "inputs": [
        {
          "internalType": "bytes4",
          "name": "interfaceId",
          "type": "bytes4"
        }
      ],
      "name": "supportsInterface",
      "outputs": [
        {
          "internalType": "bool",
          "name": "",
          "type": "bool"
        }
      ],
      "stateMutability": "view",
      "type": "function",
      "constant": true
    },
    {
      "inputs": [],
      "name": "symbol",
      "outputs": [
        {
          "internalType": "string",
          "name": "",
          "type": "string"
        }
      ],
      "stateMutability": "view",
      "type": "function",
      "constant": true
    },
    {
      "inputs": [
        {
          "internalType": "uint256",
          "name": "tokenId",
          "type": "uint256"
        }
      ],
      "name": "tokenURI",
      "outputs": [
        {
          "internalType": "string",
          "name": "",
          "type": "string"
        }
      ],
      "stateMutability": "view",
      "type": "function",
      "constant": true
    },
    {
      "inputs": [
        {
          "internalType": "address",
          "name": "from",
          "type": "address"
        },
        {
          "internalType": "address",
          "name": "to",
          "type": "address"
        },
        {
          "internalType": "uint256",
          "name": "tokenId",
          "type": "uint256"
        }
      ],
      "name": "transferFrom",
      "outputs": [],
      "stateMutability": "nonpayable",
      "type": "function"
    },
    {
      "inputs": [
        {
          "internalType": "address",
          "name": "newOwner",
          "type": "address"
        }
      ],
      "name": "transferOwnership",
      "outputs": [],
      "stateMutability": "nonpayable",
      "type": "function"
    },
    {
      "inputs": [
        {
          "internalType": "uint256",
          "name": "newPrice",
          "type": "uint256"
        }
      ],
      "name": "setListingPrice",
      "outputs": [],
      "stateMutability": "nonpayable",
      "type": "function"
    },
    {
      "inputs": [
        {
          "internalType": "address",
          "name": "_address",
          "type": "address"
        }
      ],
      "name": "authorizeAddress",
      "outputs": [],
      "stateMutability": "nonpayable",
      "type": "function"
    },
    {
      "inputs": [
        {
          "internalType": "address",
          "name": "_address",
          "type": "address"
        }
      ],
      "name": "revokeAuthorization",
      "outputs": [],
      "stateMutability": "nonpayable",
      "type": "function"
    },
    {
      "inputs": [
        {
          "internalType": "uint256",
          "name": "tokenId",
          "type": "uint256"
        }
      ],
      "name": "getNftItem",
      "outputs": [
        {
          "components": [
            {
              "internalType": "uint256",
              "name": "tokenId",
              "type": "uint256"
            },
            {
              "internalType": "uint256",
              "name": "price",
              "type": "uint256"
            },
            {
              "internalType": "address",
              "name": "creator",
              "type": "address"
            },
            {
              "internalType": "bool",
              "name": "isListed",
              "type": "bool"
            }
          ],
          "internalType": "struct NftMarket.NftItem",
          "name": "",
          "type": "tuple"
        }
      ],
      "stateMutability": "view",
      "type": "function",
      "constant": true
    },
    {
      "inputs": [],
      "name": "listedItemsCount",
      "outputs": [
        {
          "internalType": "uint256",
          "name": "",
          "type": "uint256"
        }
      ],
      "stateMutability": "view",
      "type": "function",
      "constant": true
    },
    {
      "inputs": [
        {
          "internalType": "string",
          "name": "tokenURI",
          "type": "string"
        }
      ],
      "name": "tokenURIExists",
      "outputs": [
        {
          "internalType": "bool",
          "name": "",
          "type": "bool"
        }
      ],
      "stateMutability": "view",
      "type": "function",
      "constant": true
    },
    {
      "inputs": [],
      "name": "totalSupply",
      "outputs": [
        {
          "internalType": "uint256",
          "name": "",
          "type": "uint256"
        }
      ],
      "stateMutability": "view",
      "type": "function",
      "constant": true
    },
    {
      "inputs": [
        {
          "internalType": "uint256",
          "name": "index",
          "type": "uint256"
        }
      ],
      "name": "tokenByIndex",
      "outputs": [
        {
          "internalType": "uint256",
          "name": "",
          "type": "uint256"
        }
      ],
      "stateMutability": "view",
      "type": "function",
      "constant": true
    },
    {
      "inputs": [
        {
          "internalType": "address",
          "name": "owner",
          "type": "address"
        },
        {
          "internalType": "uint256",
          "name": "index",
          "type": "uint256"
        }
      ],
      "name": "tokenOfOwnerByIndex",
      "outputs": [
        {
          "internalType": "uint256",
          "name": "",
          "type": "uint256"
        }
      ],
      "stateMutability": "view",
      "type": "function",
      "constant": true
    },
    {
      "inputs": [],
      "name": "getAllNftsOnSale",
      "outputs": [
        {
          "components": [
            {
              "internalType": "uint256",
              "name": "tokenId",
              "type": "uint256"
            },
            {
              "internalType": "uint256",
              "name": "price",
              "type": "uint256"
            },
            {
              "internalType": "address",
              "name": "creator",
              "type": "address"
            },
            {
              "internalType": "bool",
              "name": "isListed",
              "type": "bool"
            }
          ],
          "internalType": "struct NftMarket.NftItem[]",
          "name": "",
          "type": "tuple[]"
        }
      ],
      "stateMutability": "view",
      "type": "function",
      "constant": true
    },
    {
      "inputs": [],
      "name": "getOwnedNfts",
      "outputs": [
        {
          "components": [
            {
              "internalType": "uint256",
              "name": "tokenId",
              "type": "uint256"
            },
            {
              "internalType": "uint256",
              "name": "price",
              "type": "uint256"
            },
            {
              "internalType": "address",
              "name": "creator",
              "type": "address"
            },
            {
              "internalType": "bool",
              "name": "isListed",
              "type": "bool"
            }
          ],
          "internalType": "struct NftMarket.NftItem[]",
          "name": "",
          "type": "tuple[]"
        }
      ],
      "stateMutability": "view",
      "type": "function",
      "constant": true
    },
    {
      "inputs": [
        {
          "internalType": "uint256",
          "name": "tokenId",
          "type": "uint256"
        }
      ],
      "name": "burnToken",
      "outputs": [],
      "stateMutability": "nonpayable",
      "type": "function"
    },
    {
      "inputs": [
        {
          "internalType": "string",
          "name": "tokenURI",
          "type": "string"
        },
        {
          "internalType": "uint256",
          "name": "price",
          "type": "uint256"
        }
      ],
      "name": "mintToken",
      "outputs": [
        {
          "internalType": "uint256",
          "name": "",
          "type": "uint256"
        }
      ],
      "stateMutability": "payable",
      "type": "function",
      "payable": true
    },
    {
      "inputs": [
        {
          "internalType": "uint256",
          "name": "tokenId",
          "type": "uint256"
        }
      ],
      "name": "buyNft",
      "outputs": [],
      "stateMutability": "payable",
      "type": "function",
      "payable": true
    },
    {
      "inputs": [
        {
          "internalType": "uint256",
          "name": "tokenId",
          "type": "uint256"
        },
        {
          "internalType": "uint256",
          "name": "newPrice",
          "type": "uint256"
        }
      ],
      "name": "placeNftOnSale",
      "outputs": [],
      "stateMutability": "payable",
      "type": "function",
      "payable": true
    }
  ],
  "bytecode": "0x608060405273c84257302299db3c4ed44cb21ba452097559e9d8600860006101000a81548173ffffffffffffffffffffffffffffffffffffffff021916908373ffffffffffffffffffffffffffffffffffffffff1602179055506658d15e17628000600a553480156200007157600080fd5b506040518060400160405280600c81526020017f4372656174757265734e465400000000000000000000000000000000000000008152506040518060400160405280600481526020017f434e4654000000000000000000000000000000000000000000000000000000008152508160009080519060200190620000f692919062000206565b5080600190805190602001906200010f92919062000206565b50505062000132620001266200013860201b60201c565b6200014060201b60201c565b6200031a565b600033905090565b6000600760009054906101000a900473ffffffffffffffffffffffffffffffffffffffff16905081600760006101000a81548173ffffffffffffffffffffffffffffffffffffffff021916908373ffffffffffffffffffffffffffffffffffffffff1602179055508173ffffffffffffffffffffffffffffffffffffffff168173ffffffffffffffffffffffffffffffffffffffff167f8be0079c531659141344cd1fd0a4f28419497f9722a3daafe3b4186f6b6457e060405160405180910390a35050565b8280546200021490620002e5565b90600052602060002090601f01602090048101928262000238576000855562000284565b82601f106200025357805160ff191683800117855562000284565b8280016001018555821562000284579182015b828111156200028357825182559160200191906001019062000266565b5b50905062000293919062000297565b5090565b5b80821115620002b257600081600090555060010162000298565b5090565b7f4e487b7100000000000000000000000000000000000000000000000000000000600052602260045260246000fd5b60006002820490506001821680620002fe57607f821691505b602082108103620003145762000313620002b6565b5b50919050565b614f8e806200032a6000396000f3fe6080604052600436106101ee5760003560e01c806370a082311161010d578063b48028e3116100a0578063c87b56dd1161006f578063c87b56dd146106f8578063ccb4918d14610735578063e985e9c514610760578063f19e207e1461079d578063f2fde38b146107da576101ee565b8063b48028e31461064b578063b88d4fde14610674578063c046372c1461069d578063c78f19f9146106cd576101ee565b80637c726b69116100dc5780637c726b69146105a35780638da5cb5b146105cc57806395d89b41146105f7578063a22cb46514610622576101ee565b806370a08231146104fb57806370cbcb4314610538578063715018a6146105635780637b47ec1a1461057a576101ee565b80632f745c59116101855780634a5db3b5116101545780634a5db3b51461041b5780634f6ccce7146104445780636352211e146104815780636f1a0af5146104be576101ee565b80632f745c591461034d57806336b536be1461038a57806342842e0e146103b557806343d32ae7146103de576101ee565b806318160ddd116101c157806318160ddd146102c157806321f422e5146102ec57806323b872dd14610308578063243adbdd14610331576101ee565b806301ffc9a7146101f357806306fdde0314610230578063081812fc1461025b578063095ea7b314610298575b600080fd5b3480156101ff57600080fd5b5061021a600480360381019061021591906134bf565b610803565b6040516102279190613507565b60405180910390f35b34801561023c57600080fd5b506102456108e5565b60405161025291906135bb565b60405180910390f35b34801561026757600080fd5b50610282600480360381019061027d9190613613565b610977565b60405161028f9190613681565b60405180910390f35b3480156102a457600080fd5b506102bf60048036038101906102ba91906136c8565b6109fc565b005b3480156102cd57600080fd5b506102d6610b13565b6040516102e39190613717565b60405180910390f35b61030660048036038101906103019190613732565b610b20565b005b34801561031457600080fd5b5061032f600480360381019061032a9190613772565b610c9c565b005b61034b60048036038101906103469190613613565b610cfc565b005b34801561035957600080fd5b50610374600480360381019061036f91906136c8565b610e64565b6040516103819190613717565b60405180910390f35b34801561039657600080fd5b5061039f610f09565b6040516103ac91906138f6565b60405180910390f35b3480156103c157600080fd5b506103dc60048036038101906103d79190613772565b6110a3565b005b3480156103ea57600080fd5b5061040560048036038101906104009190613a4d565b6110c3565b6040516104129190613507565b60405180910390f35b34801561042757600080fd5b50610442600480360381019061043d9190613a96565b6110ff565b005b34801561045057600080fd5b5061046b60048036038101906104669190613613565b6111d6565b6040516104789190613717565b60405180910390f35b34801561048d57600080fd5b506104a860048036038101906104a39190613613565b611247565b6040516104b59190613681565b60405180910390f35b3480156104ca57600080fd5b506104e560048036038101906104e09190613613565b6112f8565b6040516104f29190613b18565b60405180910390f35b34801561050757600080fd5b50610522600480360381019061051d9190613a96565b6113aa565b60405161052f9190613717565b60405180910390f35b34801561054457600080fd5b5061054d611461565b60405161055a91906138f6565b60405180910390f35b34801561056f57600080fd5b506105786115c5565b005b34801561058657600080fd5b506105a1600480360381019061059c9190613613565b61164d565b005b3480156105af57600080fd5b506105ca60048036038101906105c59190613613565b611693565b005b3480156105d857600080fd5b506105e16117a9565b6040516105ee9190613681565b60405180910390f35b34801561060357600080fd5b5061060c6117d3565b60405161061991906135bb565b60405180910390f35b34801561062e57600080fd5b5061064960048036038101906106449190613b5f565b611865565b005b34801561065757600080fd5b50610672600480360381019061066d9190613a96565b61187b565b005b34801561068057600080fd5b5061069b60048036038101906106969190613c40565b611952565b005b6106b760048036038101906106b29190613cc3565b6119b4565b6040516106c49190613717565b60405180910390f35b3480156106d957600080fd5b506106e2611ac4565b6040516106ef9190613717565b60405180910390f35b34801561070457600080fd5b5061071f600480360381019061071a9190613613565b611aca565b60405161072c91906135bb565b60405180910390f35b34801561074157600080fd5b5061074a611c1b565b6040516107579190613717565b60405180910390f35b34801561076c57600080fd5b5061078760048036038101906107829190613d1f565b611c2c565b6040516107949190613507565b60405180910390f35b3480156107a957600080fd5b506107c460048036038101906107bf9190613a96565b611cc0565b6040516107d19190613507565b60405180910390f35b3480156107e657600080fd5b5061080160048036038101906107fc9190613a96565b611ce0565b005b60007f80ac58cd000000000000000000000000000000000000000000000000000000007bffffffffffffffffffffffffffffffffffffffffffffffffffffffff1916827bffffffffffffffffffffffffffffffffffffffffffffffffffffffff191614806108ce57507f5b5e139f000000000000000000000000000000000000000000000000000000007bffffffffffffffffffffffffffffffffffffffffffffffffffffffff1916827bffffffffffffffffffffffffffffffffffffffffffffffffffffffff1916145b806108de57506108dd82611dd7565b5b9050919050565b6060600080546108f490613d8e565b80601f016020809104026020016040519081016040528092919081815260200182805461092090613d8e565b801561096d5780601f106109425761010080835404028352916020019161096d565b820191906000526020600020905b81548152906001019060200180831161095057829003601f168201915b5050505050905090565b600061098282611e41565b6109c1576040517f08c379a00000000000000000000000000000000000000000000000000000000081526004016109b890613e31565b60405180910390fd5b6004600083815260200190815260200160002060009054906101000a900473ffffffffffffffffffffffffffffffffffffffff169050919050565b6000610a0782611247565b90508073ffffffffffffffffffffffffffffffffffffffff168373ffffffffffffffffffffffffffffffffffffffff1603610a77576040517f08c379a0000000000000000000000000000000000000000000000000000000008152600401610a6e90613ec3565b60405180910390fd5b8073ffffffffffffffffffffffffffffffffffffffff16610a96611ead565b73ffffffffffffffffffffffffffffffffffffffff161480610ac55750610ac481610abf611ead565b611c2c565b5b610b04576040517f08c379a0000000000000000000000000000000000000000000000000000000008152600401610afb90613f55565b60405180910390fd5b610b0e8383611eb5565b505050565b6000601180549050905090565b3373ffffffffffffffffffffffffffffffffffffffff16610b4083611247565b73ffffffffffffffffffffffffffffffffffffffff1614610b96576040517f08c379a0000000000000000000000000000000000000000000000000000000008152600401610b8d90613fc1565b60405180910390fd5b60001515600e600084815260200190815260200160002060020160149054906101000a900460ff16151514610c00576040517f08c379a0000000000000000000000000000000000000000000000000000000008152600401610bf79061402d565b60405180910390fd5b600a543414610c44576040517f08c379a0000000000000000000000000000000000000000000000000000000008152600401610c3b906140bf565b60405180910390fd5b6001600e600084815260200190815260200160002060020160146101000a81548160ff02191690831515021790555080600e600084815260200190815260200160002060010181905550610c98600b611f6e565b5050565b610cad610ca7611ead565b82611f84565b610cec576040517f08c379a0000000000000000000000000000000000000000000000000000000008152600401610ce390614151565b60405180910390fd5b610cf7838383612062565b505050565b6000600e60008381526020019081526020016000206001015490506000610d2283611247565b90508073ffffffffffffffffffffffffffffffffffffffff163373ffffffffffffffffffffffffffffffffffffffff1603610d92576040517f08c379a0000000000000000000000000000000000000000000000000000000008152600401610d89906141bd565b60405180910390fd5b813414610dd4576040517f08c379a0000000000000000000000000000000000000000000000000000000008152600401610dcb90614229565b60405180910390fd5b6000600e600085815260200190815260200160002060020160146101000a81548160ff021916908315150217905550610e0d600b6122c8565b610e18813385612062565b8073ffffffffffffffffffffffffffffffffffffffff166108fc349081150290604051600060405180830381858888f19350505050158015610e5e573d6000803e3d6000fd5b50505050565b6000610e6f836113aa565b8210610eb0576040517f08c379a0000000000000000000000000000000000000000000000000000000008152600401610ea790614295565b60405180910390fd5b600f60008473ffffffffffffffffffffffffffffffffffffffff1673ffffffffffffffffffffffffffffffffffffffff168152602001908152602001600020600083815260200190815260200160002054905092915050565b60606000610f15610b13565b9050600080610f24600b612324565b67ffffffffffffffff811115610f3d57610f3c613922565b5b604051908082528060200260200182016040528015610f7657816020015b610f63613330565b815260200190600190039081610f5b5790505b50905060005b83811015611099576000610f8f826111d6565b90506000600e60008381526020019081526020016000209050600115158160020160149054906101000a900460ff16151503611084578060405180608001604052908160008201548152602001600182015481526020016002820160009054906101000a900473ffffffffffffffffffffffffffffffffffffffff1673ffffffffffffffffffffffffffffffffffffffff1673ffffffffffffffffffffffffffffffffffffffff1681526020016002820160149054906101000a900460ff161515151581525050848681518110611069576110686142b5565b5b60200260200101819052506001856110819190614313565b94505b5050808061109190614369565b915050610f7c565b5080935050505090565b6110be83838360405180602001604052806000815250611952565b505050565b600060011515600d836040516110d991906143ed565b908152602001604051809103902060009054906101000a900460ff161515149050919050565b611107611ead565b73ffffffffffffffffffffffffffffffffffffffff166111256117a9565b73ffffffffffffffffffffffffffffffffffffffff161461117b576040517f08c379a000000000000000000000000000000000000000000000000000000000815260040161117290614450565b60405180910390fd5b6001600960008373ffffffffffffffffffffffffffffffffffffffff1673ffffffffffffffffffffffffffffffffffffffff16815260200190815260200160002060006101000a81548160ff02191690831515021790555050565b60006111e0610b13565b8210611221576040517f08c379a000000000000000000000000000000000000000000000000000000000815260040161121890614295565b60405180910390fd5b60118281548110611235576112346142b5565b5b90600052602060002001549050919050565b6000806002600084815260200190815260200160002060009054906101000a900473ffffffffffffffffffffffffffffffffffffffff169050600073ffffffffffffffffffffffffffffffffffffffff168173ffffffffffffffffffffffffffffffffffffffff16036112ef576040517f08c379a00000000000000000000000000000000000000000000000000000000081526004016112e6906144e2565b60405180910390fd5b80915050919050565b611300613330565b600e600083815260200190815260200160002060405180608001604052908160008201548152602001600182015481526020016002820160009054906101000a900473ffffffffffffffffffffffffffffffffffffffff1673ffffffffffffffffffffffffffffffffffffffff1673ffffffffffffffffffffffffffffffffffffffff1681526020016002820160149054906101000a900460ff1615151515815250509050919050565b60008073ffffffffffffffffffffffffffffffffffffffff168273ffffffffffffffffffffffffffffffffffffffff160361141a576040517f08c379a000000000000000000000000000000000000000000000000000000000815260040161141190614574565b60405180910390fd5b600360008373ffffffffffffffffffffffffffffffffffffffff1673ffffffffffffffffffffffffffffffffffffffff168152602001908152602001600020549050919050565b6060600061146e336113aa565b905060008167ffffffffffffffff81111561148c5761148b613922565b5b6040519080825280602002602001820160405280156114c557816020015b6114b2613330565b8152602001906001900390816114aa5790505b50905060005b828110156115bc5760006114df3383610e64565b90506000600e600083815260200190815260200160002090508060405180608001604052908160008201548152602001600182015481526020016002820160009054906101000a900473ffffffffffffffffffffffffffffffffffffffff1673ffffffffffffffffffffffffffffffffffffffff1673ffffffffffffffffffffffffffffffffffffffff1681526020016002820160149054906101000a900460ff16151515158152505084848151811061159c5761159b6142b5565b5b6020026020010181905250505080806115b490614369565b9150506114cb565b50809250505090565b6115cd611ead565b73ffffffffffffffffffffffffffffffffffffffff166115eb6117a9565b73ffffffffffffffffffffffffffffffffffffffff1614611641576040517f08c379a000000000000000000000000000000000000000000000000000000000815260040161163890614450565b60405180910390fd5b61164b6000612332565b565b60011515600e600083815260200190815260200160002060020160149054906101000a900460ff1615150361168757611686600b6122c8565b5b611690816123f8565b50565b600960003373ffffffffffffffffffffffffffffffffffffffff1673ffffffffffffffffffffffffffffffffffffffff16815260200190815260200160002060009054906101000a900460ff168061171d57506116ee6117a9565b73ffffffffffffffffffffffffffffffffffffffff163373ffffffffffffffffffffffffffffffffffffffff16145b61175c576040517f08c379a0000000000000000000000000000000000000000000000000000000008152600401611753906145e0565b60405180910390fd5b6000811161179f576040517f08c379a00000000000000000000000000000000000000000000000000000000081526004016117969061464c565b60405180910390fd5b80600a8190555050565b6000600760009054906101000a900473ffffffffffffffffffffffffffffffffffffffff16905090565b6060600180546117e290613d8e565b80601f016020809104026020016040519081016040528092919081815260200182805461180e90613d8e565b801561185b5780601f106118305761010080835404028352916020019161185b565b820191906000526020600020905b81548152906001019060200180831161183e57829003601f168201915b5050505050905090565b611877611870611ead565b838361244b565b5050565b611883611ead565b73ffffffffffffffffffffffffffffffffffffffff166118a16117a9565b73ffffffffffffffffffffffffffffffffffffffff16146118f7576040517f08c379a00000000000000000000000000000000000000000000000000000000081526004016118ee90614450565b60405180910390fd5b6000600960008373ffffffffffffffffffffffffffffffffffffffff1673ffffffffffffffffffffffffffffffffffffffff16815260200190815260200160002060006101000a81548160ff02191690831515021790555050565b61196361195d611ead565b83611f84565b6119a2576040517f08c379a000000000000000000000000000000000000000000000000000000000815260040161199990614151565b60405180910390fd5b6119ae848484846125b7565b50505050565b60006119bf836110c3565b156119ff576040517f08c379a00000000000000000000000000000000000000000000000000000000081526004016119f6906146b8565b60405180910390fd5b600a543414611a43576040517f08c379a0000000000000000000000000000000000000000000000000000000008152600401611a3a906140bf565b60405180910390fd5b611a4d600c611f6e565b611a57600b611f6e565b6000611a63600c612324565b9050611a6f3382612613565b611a798185612631565b611a8381846126a5565b6001600d85604051611a9591906143ed565b908152602001604051809103902060006101000a81548160ff0219169083151502179055508091505092915050565b600a5481565b6060611ad582611e41565b611b14576040517f08c379a0000000000000000000000000000000000000000000000000000000008152600401611b0b9061474a565b60405180910390fd5b6000600660008481526020019081526020016000208054611b3490613d8e565b80601f0160208091040260200160405190810160405280929190818152602001828054611b6090613d8e565b8015611bad5780601f10611b8257610100808354040283529160200191611bad565b820191906000526020600020905b815481529060010190602001808311611b9057829003601f168201915b505050505090506000611bbe6127f5565b90506000815103611bd3578192505050611c16565b600082511115611c08578082604051602001611bf092919061476a565b60405160208183030381529060405292505050611c16565b611c118461280c565b925050505b919050565b6000611c27600b612324565b905090565b6000600560008473ffffffffffffffffffffffffffffffffffffffff1673ffffffffffffffffffffffffffffffffffffffff16815260200190815260200160002060008373ffffffffffffffffffffffffffffffffffffffff1673ffffffffffffffffffffffffffffffffffffffff16815260200190815260200160002060009054906101000a900460ff16905092915050565b60096020528060005260406000206000915054906101000a900460ff1681565b611ce8611ead565b73ffffffffffffffffffffffffffffffffffffffff16611d066117a9565b73ffffffffffffffffffffffffffffffffffffffff1614611d5c576040517f08c379a0000000000000000000000000000000000000000000000000000000008152600401611d5390614450565b60405180910390fd5b600073ffffffffffffffffffffffffffffffffffffffff168173ffffffffffffffffffffffffffffffffffffffff1603611dcb576040517f08c379a0000000000000000000000000000000000000000000000000000000008152600401611dc290614800565b60405180910390fd5b611dd481612332565b50565b60007f01ffc9a7000000000000000000000000000000000000000000000000000000007bffffffffffffffffffffffffffffffffffffffffffffffffffffffff1916827bffffffffffffffffffffffffffffffffffffffffffffffffffffffff1916149050919050565b60008073ffffffffffffffffffffffffffffffffffffffff166002600084815260200190815260200160002060009054906101000a900473ffffffffffffffffffffffffffffffffffffffff1673ffffffffffffffffffffffffffffffffffffffff1614159050919050565b600033905090565b816004600083815260200190815260200160002060006101000a81548173ffffffffffffffffffffffffffffffffffffffff021916908373ffffffffffffffffffffffffffffffffffffffff160217905550808273ffffffffffffffffffffffffffffffffffffffff16611f2883611247565b73ffffffffffffffffffffffffffffffffffffffff167f8c5be1e5ebec7d5bd14f71427d1e84f3dd0314c0f7b2291e5b200ac8c7c3b92560405160405180910390a45050565b6001816000016000828254019250508190555050565b6000611f8f82611e41565b611fce576040517f08c379a0000000000000000000000000000000000000000000000000000000008152600401611fc590614892565b60405180910390fd5b6000611fd983611247565b90508073ffffffffffffffffffffffffffffffffffffffff168473ffffffffffffffffffffffffffffffffffffffff16148061204857508373ffffffffffffffffffffffffffffffffffffffff1661203084610977565b73ffffffffffffffffffffffffffffffffffffffff16145b8061205957506120588185611c2c565b5b91505092915050565b8273ffffffffffffffffffffffffffffffffffffffff1661208282611247565b73ffffffffffffffffffffffffffffffffffffffff16146120d8576040517f08c379a00000000000000000000000000000000000000000000000000000000081526004016120cf90614924565b60405180910390fd5b600073ffffffffffffffffffffffffffffffffffffffff168273ffffffffffffffffffffffffffffffffffffffff1603612147576040517f08c379a000000000000000000000000000000000000000000000000000000000815260040161213e906149b6565b60405180910390fd5b6121528383836128b3565b61215d600082611eb5565b6001600360008573ffffffffffffffffffffffffffffffffffffffff1673ffffffffffffffffffffffffffffffffffffffff16815260200190815260200160002060008282546121ad91906149d6565b925050819055506001600360008473ffffffffffffffffffffffffffffffffffffffff1673ffffffffffffffffffffffffffffffffffffffff16815260200190815260200160002060008282546122049190614313565b92505081905550816002600083815260200190815260200160002060006101000a81548173ffffffffffffffffffffffffffffffffffffffff021916908373ffffffffffffffffffffffffffffffffffffffff160217905550808273ffffffffffffffffffffffffffffffffffffffff168473ffffffffffffffffffffffffffffffffffffffff167fddf252ad1be2c89b69c2b068fc378daa952ba7f163c4a11628f55a4df523b3ef60405160405180910390a46122c38383836129c5565b505050565b60008160000154905060008111612314576040517f08c379a000000000000000000000000000000000000000000000000000000000815260040161230b90614a56565b60405180910390fd5b6001810382600001819055505050565b600081600001549050919050565b6000600760009054906101000a900473ffffffffffffffffffffffffffffffffffffffff16905081600760006101000a81548173ffffffffffffffffffffffffffffffffffffffff021916908373ffffffffffffffffffffffffffffffffffffffff1602179055508173ffffffffffffffffffffffffffffffffffffffff168173ffffffffffffffffffffffffffffffffffffffff167f8be0079c531659141344cd1fd0a4f28419497f9722a3daafe3b4186f6b6457e060405160405180910390a35050565b612401816129ca565b600060066000838152602001908152602001600020805461242190613d8e565b905014612448576006600082815260200190815260200160002060006124479190613370565b5b50565b8173ffffffffffffffffffffffffffffffffffffffff168373ffffffffffffffffffffffffffffffffffffffff16036124b9576040517f08c379a00000000000000000000000000000000000000000000000000000000081526004016124b090614ac2565b60405180910390fd5b80600560008573ffffffffffffffffffffffffffffffffffffffff1673ffffffffffffffffffffffffffffffffffffffff16815260200190815260200160002060008473ffffffffffffffffffffffffffffffffffffffff1673ffffffffffffffffffffffffffffffffffffffff16815260200190815260200160002060006101000a81548160ff0219169083151502179055508173ffffffffffffffffffffffffffffffffffffffff168373ffffffffffffffffffffffffffffffffffffffff167f17307eab39ab6107e8899845ad3d59bd9653f200f220920489ca2b5937696c31836040516125aa9190613507565b60405180910390a3505050565b6125c2848484612062565b6125ce84848484612ae7565b61260d576040517f08c379a000000000000000000000000000000000000000000000000000000000815260040161260490614b54565b60405180910390fd5b50505050565b61262d828260405180602001604052806000815250612c6e565b5050565b61263a82611e41565b612679576040517f08c379a000000000000000000000000000000000000000000000000000000000815260040161267090614be6565b60405180910390fd5b806006600084815260200190815260200160002090805190602001906126a09291906133b0565b505050565b600081116126e8576040517f08c379a00000000000000000000000000000000000000000000000000000000081526004016126df9061464c565b60405180910390fd5b60405180608001604052808381526020018281526020013373ffffffffffffffffffffffffffffffffffffffff16815260200160011515815250600e6000848152602001908152602001600020600082015181600001556020820151816001015560408201518160020160006101000a81548173ffffffffffffffffffffffffffffffffffffffff021916908373ffffffffffffffffffffffffffffffffffffffff16021790555060608201518160020160146101000a81548160ff0219169083151502179055509050507f470031062672bc0246e132c723a729c4676710ec663a29e86c88678032daddea82823360016040516127e99493929190614c06565b60405180910390a15050565b606060405180602001604052806000815250905090565b606061281782611e41565b612856576040517f08c379a000000000000000000000000000000000000000000000000000000000815260040161284d90614cbd565b60405180910390fd5b60006128606127f5565b9050600081511161288057604051806020016040528060008152506128ab565b8061288a84612cc9565b60405160200161289b92919061476a565b6040516020818303038152906040525b915050919050565b6128be838383612e29565b600073ffffffffffffffffffffffffffffffffffffffff168373ffffffffffffffffffffffffffffffffffffffff1603612900576128fb81612e2e565b61293f565b8173ffffffffffffffffffffffffffffffffffffffff168373ffffffffffffffffffffffffffffffffffffffff161461293e5761293d8382612e77565b5b5b600073ffffffffffffffffffffffffffffffffffffffff168273ffffffffffffffffffffffffffffffffffffffff16036129815761297c81612fe4565b6129c0565b8273ffffffffffffffffffffffffffffffffffffffff168273ffffffffffffffffffffffffffffffffffffffff16146129bf576129be82826130b5565b5b5b505050565b505050565b60006129d582611247565b90506129e3816000846128b3565b6129ee600083611eb5565b6001600360008373ffffffffffffffffffffffffffffffffffffffff1673ffffffffffffffffffffffffffffffffffffffff1681526020019081526020016000206000828254612a3e91906149d6565b925050819055506002600083815260200190815260200160002060006101000a81549073ffffffffffffffffffffffffffffffffffffffff021916905581600073ffffffffffffffffffffffffffffffffffffffff168273ffffffffffffffffffffffffffffffffffffffff167fddf252ad1be2c89b69c2b068fc378daa952ba7f163c4a11628f55a4df523b3ef60405160405180910390a4612ae3816000846129c5565b5050565b6000612b088473ffffffffffffffffffffffffffffffffffffffff16613134565b15612c61578373ffffffffffffffffffffffffffffffffffffffff1663150b7a02612b31611ead565b8786866040518563ffffffff1660e01b8152600401612b539493929190614d32565b6020604051808303816000875af1925050508015612b8f57506040513d601f19601f82011682018060405250810190612b8c9190614d93565b60015b612c11573d8060008114612bbf576040519150601f19603f3d011682016040523d82523d6000602084013e612bc4565b606091505b506000815103612c09576040517f08c379a0000000000000000000000000000000000000000000000000000000008152600401612c0090614b54565b60405180910390fd5b805181602001fd5b63150b7a0260e01b7bffffffffffffffffffffffffffffffffffffffffffffffffffffffff1916817bffffffffffffffffffffffffffffffffffffffffffffffffffffffff191614915050612c66565b600190505b949350505050565b612c788383613157565b612c856000848484612ae7565b612cc4576040517f08c379a0000000000000000000000000000000000000000000000000000000008152600401612cbb90614b54565b60405180910390fd5b505050565b606060008203612d10576040518060400160405280600181526020017f30000000000000000000000000000000000000000000000000000000000000008152509050612e24565b600082905060005b60008214612d42578080612d2b90614369565b915050600a82612d3b9190614def565b9150612d18565b60008167ffffffffffffffff811115612d5e57612d5d613922565b5b6040519080825280601f01601f191660200182016040528015612d905781602001600182028036833780820191505090505b5090505b60008514612e1d57600182612da991906149d6565b9150600a85612db89190614e20565b6030612dc49190614313565b60f81b818381518110612dda57612dd96142b5565b5b60200101907effffffffffffffffffffffffffffffffffffffffffffffffffffffffffffff1916908160001a905350600a85612e169190614def565b9450612d94565b8093505050505b919050565b505050565b6011805490506012600083815260200190815260200160002081905550601181908060018154018082558091505060019003906000526020600020016000909190919091505550565b60006001612e84846113aa565b612e8e91906149d6565b9050600060106000848152602001908152602001600020549050818114612f73576000600f60008673ffffffffffffffffffffffffffffffffffffffff1673ffffffffffffffffffffffffffffffffffffffff168152602001908152602001600020600084815260200190815260200160002054905080600f60008773ffffffffffffffffffffffffffffffffffffffff1673ffffffffffffffffffffffffffffffffffffffff168152602001908152602001600020600084815260200190815260200160002081905550816010600083815260200190815260200160002081905550505b6010600084815260200190815260200160002060009055600f60008573ffffffffffffffffffffffffffffffffffffffff1673ffffffffffffffffffffffffffffffffffffffff16815260200190815260200160002060008381526020019081526020016000206000905550505050565b60006001601180549050612ff891906149d6565b9050600060126000848152602001908152602001600020549050600060118381548110613028576130276142b5565b5b90600052602060002001549050806011838154811061304a576130496142b5565b5b90600052602060002001819055508160126000838152602001908152602001600020819055506012600085815260200190815260200160002060009055601180548061309957613098614e51565b5b6001900381819060005260206000200160009055905550505050565b60006130c0836113aa565b905081600f60008573ffffffffffffffffffffffffffffffffffffffff1673ffffffffffffffffffffffffffffffffffffffff168152602001908152602001600020600083815260200190815260200160002081905550806010600084815260200190815260200160002081905550505050565b6000808273ffffffffffffffffffffffffffffffffffffffff163b119050919050565b600073ffffffffffffffffffffffffffffffffffffffff168273ffffffffffffffffffffffffffffffffffffffff16036131c6576040517f08c379a00000000000000000000000000000000000000000000000000000000081526004016131bd90614ecc565b60405180910390fd5b6131cf81611e41565b1561320f576040517f08c379a000000000000000000000000000000000000000000000000000000000815260040161320690614f38565b60405180910390fd5b61321b600083836128b3565b6001600360008473ffffffffffffffffffffffffffffffffffffffff1673ffffffffffffffffffffffffffffffffffffffff168152602001908152602001600020600082825461326b9190614313565b92505081905550816002600083815260200190815260200160002060006101000a81548173ffffffffffffffffffffffffffffffffffffffff021916908373ffffffffffffffffffffffffffffffffffffffff160217905550808273ffffffffffffffffffffffffffffffffffffffff16600073ffffffffffffffffffffffffffffffffffffffff167fddf252ad1be2c89b69c2b068fc378daa952ba7f163c4a11628f55a4df523b3ef60405160405180910390a461332c600083836129c5565b5050565b60405180608001604052806000815260200160008152602001600073ffffffffffffffffffffffffffffffffffffffff1681526020016000151581525090565b50805461337c90613d8e565b6000825580601f1061338e57506133ad565b601f0160209004906000526020600020908101906133ac9190613436565b5b50565b8280546133bc90613d8e565b90600052602060002090601f0160209004810192826133de5760008555613425565b82601f106133f757805160ff1916838001178555613425565b82800160010185558215613425579182015b82811115613424578251825591602001919060010190613409565b5b5090506134329190613436565b5090565b5b8082111561344f576000816000905550600101613437565b5090565b6000604051905090565b600080fd5b600080fd5b60007fffffffff0000000000000000000000000000000000000000000000000000000082169050919050565b61349c81613467565b81146134a757600080fd5b50565b6000813590506134b981613493565b92915050565b6000602082840312156134d5576134d461345d565b5b60006134e3848285016134aa565b91505092915050565b60008115159050919050565b613501816134ec565b82525050565b600060208201905061351c60008301846134f8565b92915050565b600081519050919050565b600082825260208201905092915050565b60005b8381101561355c578082015181840152602081019050613541565b8381111561356b576000848401525b50505050565b6000601f19601f8301169050919050565b600061358d82613522565b613597818561352d565b93506135a781856020860161353e565b6135b081613571565b840191505092915050565b600060208201905081810360008301526135d58184613582565b905092915050565b6000819050919050565b6135f0816135dd565b81146135fb57600080fd5b50565b60008135905061360d816135e7565b92915050565b6000602082840312156136295761362861345d565b5b6000613637848285016135fe565b91505092915050565b600073ffffffffffffffffffffffffffffffffffffffff82169050919050565b600061366b82613640565b9050919050565b61367b81613660565b82525050565b60006020820190506136966000830184613672565b92915050565b6136a581613660565b81146136b057600080fd5b50565b6000813590506136c28161369c565b92915050565b600080604083850312156136df576136de61345d565b5b60006136ed858286016136b3565b92505060206136fe858286016135fe565b9150509250929050565b613711816135dd565b82525050565b600060208201905061372c6000830184613708565b92915050565b600080604083850312156137495761374861345d565b5b6000613757858286016135fe565b9250506020613768858286016135fe565b9150509250929050565b60008060006060848603121561378b5761378a61345d565b5b6000613799868287016136b3565b93505060206137aa868287016136b3565b92505060406137bb868287016135fe565b9150509250925092565b600081519050919050565b600082825260208201905092915050565b6000819050602082019050919050565b6137fa816135dd565b82525050565b61380981613660565b82525050565b613818816134ec565b82525050565b60808201600082015161383460008501826137f1565b50602082015161384760208501826137f1565b50604082015161385a6040850182613800565b50606082015161386d606085018261380f565b50505050565b600061387f838361381e565b60808301905092915050565b6000602082019050919050565b60006138a3826137c5565b6138ad81856137d0565b93506138b8836137e1565b8060005b838110156138e95781516138d08882613873565b97506138db8361388b565b9250506001810190506138bc565b5085935050505092915050565b600060208201905081810360008301526139108184613898565b905092915050565b600080fd5b600080fd5b7f4e487b7100000000000000000000000000000000000000000000000000000000600052604160045260246000fd5b61395a82613571565b810181811067ffffffffffffffff8211171561397957613978613922565b5b80604052505050565b600061398c613453565b90506139988282613951565b919050565b600067ffffffffffffffff8211156139b8576139b7613922565b5b6139c182613571565b9050602081019050919050565b82818337600083830152505050565b60006139f06139eb8461399d565b613982565b905082815260208101848484011115613a0c57613a0b61391d565b5b613a178482856139ce565b509392505050565b600082601f830112613a3457613a33613918565b5b8135613a448482602086016139dd565b91505092915050565b600060208284031215613a6357613a6261345d565b5b600082013567ffffffffffffffff811115613a8157613a80613462565b5b613a8d84828501613a1f565b91505092915050565b600060208284031215613aac57613aab61345d565b5b6000613aba848285016136b3565b91505092915050565b608082016000820151613ad960008501826137f1565b506020820151613aec60208501826137f1565b506040820151613aff6040850182613800565b506060820151613b12606085018261380f565b50505050565b6000608082019050613b2d6000830184613ac3565b92915050565b613b3c816134ec565b8114613b4757600080fd5b50565b600081359050613b5981613b33565b92915050565b60008060408385031215613b7657613b7561345d565b5b6000613b84858286016136b3565b9250506020613b9585828601613b4a565b9150509250929050565b600067ffffffffffffffff821115613bba57613bb9613922565b5b613bc382613571565b9050602081019050919050565b6000613be3613bde84613b9f565b613982565b905082815260208101848484011115613bff57613bfe61391d565b5b613c0a8482856139ce565b509392505050565b600082601f830112613c2757613c26613918565b5b8135613c37848260208601613bd0565b91505092915050565b60008060008060808587031215613c5a57613c5961345d565b5b6000613c68878288016136b3565b9450506020613c79878288016136b3565b9350506040613c8a878288016135fe565b925050606085013567ffffffffffffffff811115613cab57613caa613462565b5b613cb787828801613c12565b91505092959194509250565b60008060408385031215613cda57613cd961345d565b5b600083013567ffffffffffffffff811115613cf857613cf7613462565b5b613d0485828601613a1f565b9250506020613d15858286016135fe565b9150509250929050565b60008060408385031215613d3657613d3561345d565b5b6000613d44858286016136b3565b9250506020613d55858286016136b3565b9150509250929050565b7f4e487b7100000000000000000000000000000000000000000000000000000000600052602260045260246000fd5b60006002820490506001821680613da657607f821691505b602082108103613db957613db8613d5f565b5b50919050565b7f4552433732313a20617070726f76656420717565727920666f72206e6f6e657860008201527f697374656e7420746f6b656e0000000000000000000000000000000000000000602082015250565b6000613e1b602c8361352d565b9150613e2682613dbf565b604082019050919050565b60006020820190508181036000830152613e4a81613e0e565b9050919050565b7f4552433732313a20617070726f76616c20746f2063757272656e74206f776e6560008201527f7200000000000000000000000000000000000000000000000000000000000000602082015250565b6000613ead60218361352d565b9150613eb882613e51565b604082019050919050565b60006020820190508181036000830152613edc81613ea0565b9050919050565b7f4552433732313a20617070726f76652063616c6c6572206973206e6f74206f7760008201527f6e6572206e6f7220617070726f76656420666f7220616c6c0000000000000000602082015250565b6000613f3f60388361352d565b9150613f4a82613ee3565b604082019050919050565b60006020820190508181036000830152613f6e81613f32565b9050919050565b7f596f7520617265206e6f74206f776e6572206f662074686973206e6674000000600082015250565b6000613fab601d8361352d565b9150613fb682613f75565b602082019050919050565b60006020820190508181036000830152613fda81613f9e565b9050919050565b7f4974656d20697320616c7265616479206f6e2073616c65000000000000000000600082015250565b600061401760178361352d565b915061402282613fe1565b602082019050919050565b600060208201905081810360008301526140468161400a565b9050919050565b7f5072696365206d75737420626520657175616c20746f206c697374696e67207060008201527f7269636500000000000000000000000000000000000000000000000000000000602082015250565b60006140a960248361352d565b91506140b48261404d565b604082019050919050565b600060208201905081810360008301526140d88161409c565b9050919050565b7f4552433732313a207472616e736665722063616c6c6572206973206e6f74206f60008201527f776e6572206e6f7220617070726f766564000000000000000000000000000000602082015250565b600061413b60318361352d565b9150614146826140df565b604082019050919050565b6000602082019050818103600083015261416a8161412e565b9050919050565b7f596f7520616c7265616479206f776e2074686973204e46540000000000000000600082015250565b60006141a760188361352d565b91506141b282614171565b602082019050919050565b600060208201905081810360008301526141d68161419a565b9050919050565b7f506c65617365207375626d6974207468652061736b696e672070726963650000600082015250565b6000614213601e8361352d565b915061421e826141dd565b602082019050919050565b6000602082019050818103600083015261424281614206565b9050919050565b7f496e646578206f7574206f6620626f756e647300000000000000000000000000600082015250565b600061427f60138361352d565b915061428a82614249565b602082019050919050565b600060208201905081810360008301526142ae81614272565b9050919050565b7f4e487b7100000000000000000000000000000000000000000000000000000000600052603260045260246000fd5b7f4e487b7100000000000000000000000000000000000000000000000000000000600052601160045260246000fd5b600061431e826135dd565b9150614329836135dd565b9250827fffffffffffffffffffffffffffffffffffffffffffffffffffffffffffffffff0382111561435e5761435d6142e4565b5b828201905092915050565b6000614374826135dd565b91507fffffffffffffffffffffffffffffffffffffffffffffffffffffffffffffffff82036143a6576143a56142e4565b5b600182019050919050565b600081905092915050565b60006143c782613522565b6143d181856143b1565b93506143e181856020860161353e565b80840191505092915050565b60006143f982846143bc565b915081905092915050565b7f4f776e61626c653a2063616c6c6572206973206e6f7420746865206f776e6572600082015250565b600061443a60208361352d565b915061444582614404565b602082019050919050565b600060208201905081810360008301526144698161442d565b9050919050565b7f4552433732313a206f776e657220717565727920666f72206e6f6e657869737460008201527f656e7420746f6b656e0000000000000000000000000000000000000000000000602082015250565b60006144cc60298361352d565b91506144d782614470565b604082019050919050565b600060208201905081810360008301526144fb816144bf565b9050919050565b7f4552433732313a2062616c616e636520717565727920666f7220746865207a6560008201527f726f206164647265737300000000000000000000000000000000000000000000602082015250565b600061455e602a8361352d565b915061456982614502565b604082019050919050565b6000602082019050818103600083015261458d81614551565b9050919050565b7f43616c6c6572206973206e6f7420617574686f72697a65640000000000000000600082015250565b60006145ca60188361352d565b91506145d582614594565b602082019050919050565b600060208201905081810360008301526145f9816145bd565b9050919050565b7f5072696365206d757374206265206174206c6561737420312077656900000000600082015250565b6000614636601c8361352d565b915061464182614600565b602082019050919050565b6000602082019050818103600083015261466581614629565b9050919050565b7f546f6b656e2055524920616c7265616479206578697374730000000000000000600082015250565b60006146a260188361352d565b91506146ad8261466c565b602082019050919050565b600060208201905081810360008301526146d181614695565b9050919050565b7f45524337323155524953746f726167653a2055524920717565727920666f722060008201527f6e6f6e6578697374656e7420746f6b656e000000000000000000000000000000602082015250565b600061473460318361352d565b915061473f826146d8565b604082019050919050565b6000602082019050818103600083015261476381614727565b9050919050565b600061477682856143bc565b915061478282846143bc565b91508190509392505050565b7f4f776e61626c653a206e6577206f776e657220697320746865207a65726f206160008201527f6464726573730000000000000000000000000000000000000000000000000000602082015250565b60006147ea60268361352d565b91506147f58261478e565b604082019050919050565b60006020820190508181036000830152614819816147dd565b9050919050565b7f4552433732313a206f70657261746f7220717565727920666f72206e6f6e657860008201527f697374656e7420746f6b656e0000000000000000000000000000000000000000602082015250565b600061487c602c8361352d565b915061488782614820565b604082019050919050565b600060208201905081810360008301526148ab8161486f565b9050919050565b7f4552433732313a207472616e736665722066726f6d20696e636f72726563742060008201527f6f776e6572000000000000000000000000000000000000000000000000000000602082015250565b600061490e60258361352d565b9150614919826148b2565b604082019050919050565b6000602082019050818103600083015261493d81614901565b9050919050565b7f4552433732313a207472616e7366657220746f20746865207a65726f2061646460008201527f7265737300000000000000000000000000000000000000000000000000000000602082015250565b60006149a060248361352d565b91506149ab82614944565b604082019050919050565b600060208201905081810360008301526149cf81614993565b9050919050565b60006149e1826135dd565b91506149ec836135dd565b9250828210156149ff576149fe6142e4565b5b828203905092915050565b7f436f756e7465723a2064656372656d656e74206f766572666c6f770000000000600082015250565b6000614a40601b8361352d565b9150614a4b82614a0a565b602082019050919050565b60006020820190508181036000830152614a6f81614a33565b9050919050565b7f4552433732313a20617070726f766520746f2063616c6c657200000000000000600082015250565b6000614aac60198361352d565b9150614ab782614a76565b602082019050919050565b60006020820190508181036000830152614adb81614a9f565b9050919050565b7f4552433732313a207472616e7366657220746f206e6f6e20455243373231526560008201527f63656976657220696d706c656d656e7465720000000000000000000000000000602082015250565b6000614b3e60328361352d565b9150614b4982614ae2565b604082019050919050565b60006020820190508181036000830152614b6d81614b31565b9050919050565b7f45524337323155524953746f726167653a2055524920736574206f66206e6f6e60008201527f6578697374656e7420746f6b656e000000000000000000000000000000000000602082015250565b6000614bd0602e8361352d565b9150614bdb82614b74565b604082019050919050565b60006020820190508181036000830152614bff81614bc3565b9050919050565b6000608082019050614c1b6000830187613708565b614c286020830186613708565b614c356040830185613672565b614c4260608301846134f8565b95945050505050565b7f4552433732314d657461646174613a2055524920717565727920666f72206e6f60008201527f6e6578697374656e7420746f6b656e0000000000000000000000000000000000602082015250565b6000614ca7602f8361352d565b9150614cb282614c4b565b604082019050919050565b60006020820190508181036000830152614cd681614c9a565b9050919050565b600081519050919050565b600082825260208201905092915050565b6000614d0482614cdd565b614d0e8185614ce8565b9350614d1e81856020860161353e565b614d2781613571565b840191505092915050565b6000608082019050614d476000830187613672565b614d546020830186613672565b614d616040830185613708565b8181036060830152614d738184614cf9565b905095945050505050565b600081519050614d8d81613493565b92915050565b600060208284031215614da957614da861345d565b5b6000614db784828501614d7e565b91505092915050565b7f4e487b7100000000000000000000000000000000000000000000000000000000600052601260045260246000fd5b6000614dfa826135dd565b9150614e05836135dd565b925082614e1557614e14614dc0565b5b828204905092915050565b6000614e2b826135dd565b9150614e36836135dd565b925082614e4657614e45614dc0565b5b828206905092915050565b7f4e487b7100000000000000000000000000000000000000000000000000000000600052603160045260246000fd5b7f4552433732313a206d696e7420746f20746865207a65726f2061646472657373600082015250565b6000614eb660208361352d565b9150614ec182614e80565b602082019050919050565b60006020820190508181036000830152614ee581614ea9565b9050919050565b7f4552433732313a20746f6b656e20616c7265616479206d696e74656400000000600082015250565b6000614f22601c8361352d565b9150614f2d82614eec565b602082019050919050565b60006020820190508181036000830152614f5181614f15565b905091905056fea2646970667358221220a2a8aacaa7ed629b3264cb38a535a7a439db44eede96b7b65fc218f47a413e4b64736f6c634300080d0033",
  "immutableReferences": {},
  "source": "// SPDX-License-Identifier: MIT\npragma solidity >=0.4.22 <0.9.0;\n\nimport \"@openzeppelin/contracts/token/ERC721/extensions/ERC721URIStorage.sol\";\nimport \"@openzeppelin/contracts/utils/Counters.sol\";\nimport \"@openzeppelin/contracts/access/Ownable.sol\";\n\ncontract NftMarket is ERC721URIStorage, Ownable {\n    using Counters for Counters.Counter;\n\n    struct NftItem {\n        uint tokenId;\n        uint price;\n        address creator;\n        bool isListed;\n    }\n\n    address private _ownerAddress = 0xC84257302299Db3C4ED44cb21Ba452097559E9D8;\n    mapping(address => bool) public authorizedAddresses;\n\n    uint public listingPrice = 0.025 ether;\n\n    Counters.Counter private _listedItems;\n    Counters.Counter private _tokenIds;\n\n    mapping(string => bool) private _usedTokenURIs;\n    mapping(uint => NftItem) private _idToNftItem;\n\n    mapping(address => mapping(uint => uint)) private _ownedTokens;\n    mapping(uint => uint) private _idToOwnedIndex;\n\n    uint256[] private _allNfts;\n    mapping (uint => uint) private _idToNftIndex;\n\n    event NftItemCreated (\n        uint tokenId,\n        uint price,\n        address creator,\n        bool isListed\n    );\n\n    constructor() ERC721(\"CreaturesNFT\", \"CNFT\") {\n        // transferOwnership(_ownerAddress);\n    }\n\n    function setListingPrice(uint newPrice) external onlyAuthorized {\n        require(newPrice > 0, \"Price must be at least 1 wei\");\n        listingPrice = newPrice;\n    }\n\n    modifier onlyAuthorized() {\n        require(authorizedAddresses[msg.sender] || msg.sender == owner(), \"Caller is not authorized\");\n        _;\n    }\n\n    function authorizeAddress(address _address) external onlyOwner {\n        authorizedAddresses[_address] = true;\n    }\n    \n    function revokeAuthorization(address _address) external onlyOwner {\n        authorizedAddresses[_address] = false;\n    }\n\n    function getNftItem(uint tokenId) public view returns (NftItem memory) {\n        return _idToNftItem[tokenId];\n    }\n\n    function listedItemsCount() public view returns (uint) {\n        return _listedItems.current();\n    }\n\n    function tokenURIExists(string memory tokenURI) public view returns (bool) {\n        return _usedTokenURIs[tokenURI] == true;\n    }\n\n    function totalSupply() public view returns (uint) {\n        return _allNfts.length;\n    }\n\n    function tokenByIndex(uint index) public view returns (uint) {\n        require(index < totalSupply(), \"Index out of bounds\");\n        return _allNfts[index];\n    }\n    \n    function tokenOfOwnerByIndex(address owner, uint index) public view returns (uint) {\n        require(index < ERC721.balanceOf(owner), \"Index out of bounds\");\n        return _ownedTokens[owner][index];\n    }\n\n    function getAllNftsOnSale() public view returns (NftItem[] memory) {\n        uint allItemsCounts = totalSupply();\n        uint currentIndex = 0;\n        NftItem[] memory items = new NftItem[](_listedItems.current());\n\n        for(uint i = 0; i < allItemsCounts; i++) {\n            uint tokenId = tokenByIndex(i);\n            NftItem storage item = _idToNftItem[tokenId];\n\n            if (item.isListed == true) {\n                items[currentIndex] = item;\n                currentIndex += 1;\n            }\n        }\n\n        return items;\n    }\n\n    function getOwnedNfts() public view returns (NftItem[] memory) {\n        uint ownedItemsCount = ERC721.balanceOf(msg.sender);\n        NftItem[] memory items = new NftItem[](ownedItemsCount);\n\n        for(uint i = 0; i < ownedItemsCount; i++) {\n            uint tokenId = tokenOfOwnerByIndex(msg.sender, i);\n            NftItem storage item = _idToNftItem[tokenId];\n            items[i] = item; \n        }\n\n        return items;\n    }\n\n    function burnToken(uint tokenId) public {\n        if (_idToNftItem[tokenId].isListed == true) {\n            _listedItems.decrement();\n        }\n        _burn(tokenId);\n    }\n\n    function mintToken(string memory tokenURI, uint price) public payable returns (uint) {\n        require(!tokenURIExists(tokenURI), \"Token URI already exists\");\n        require(msg.value == listingPrice, \"Price must be equal to listing price\");\n\n        _tokenIds.increment();\n        _listedItems.increment();\n\n        uint newTokenId = _tokenIds.current();\n\n        _safeMint(msg.sender, newTokenId);\n        _setTokenURI(newTokenId, tokenURI);\n        _createNftItem(newTokenId, price);\n        _usedTokenURIs[tokenURI] = true;\n\n        return newTokenId;\n    }\n\n    function buyNft(\n        uint tokenId\n    ) public payable {\n        uint price = _idToNftItem[tokenId].price;\n        address owner = ERC721.ownerOf(tokenId);\n\n        require(msg.sender != owner, \"You already own this NFT\");\n        require(msg.value == price, \"Please submit the asking price\");\n\n        _idToNftItem[tokenId].isListed = false;\n        _listedItems.decrement();\n\n        _transfer(owner, msg.sender, tokenId);\n        payable(owner).transfer(msg.value);\n    }\n\n    function placeNftOnSale(uint tokenId, uint newPrice) public payable {\n        require(ERC721.ownerOf(tokenId) == msg.sender, \"You are not owner of this nft\");\n        require(_idToNftItem[tokenId].isListed == false, \"Item is already on sale\");\n        require(msg.value == listingPrice, \"Price must be equal to listing price\");\n\n        _idToNftItem[tokenId].isListed = true;\n        _idToNftItem[tokenId].price = newPrice;\n        _listedItems.increment();\n    }\n\n    function _createNftItem(\n        uint tokenId, \n        uint price\n    ) private {\n        require(price > 0, \"Price must be at least 1 wei\");\n\n        _idToNftItem[tokenId] = NftItem(\n            tokenId,\n            price,\n            msg.sender,\n            true\n        );\n\n        emit NftItemCreated(tokenId, price, msg.sender, true);\n    }\n\n    function _beforeTokenTransfer(\n        address from,\n        address to,\n        uint tokenId\n    ) internal virtual override {\n        super._beforeTokenTransfer(from, to, tokenId);\n\n        if (from == address(0)) {\n            _addTokenToAllTokensEnumeration(tokenId);\n        } else if (from != to) {\n            _removeTokenFromOwnerEnumeration(from, tokenId);\n        }\n\n        if (to == address(0)) {\n            _removeTokenFromAllTokensEnumeration(tokenId);\n        } else if (to != from) {\n            _addTokenToOwnerEnumeration(to, tokenId);\n        }\n    }\n\n    function _addTokenToAllTokensEnumeration(uint tokenId) private {\n        _idToNftIndex[tokenId] = _allNfts.length;\n        _allNfts.push(tokenId);\n    }\n\n    function _addTokenToOwnerEnumeration(address to, uint tokenId) private {\n        uint length = ERC721.balanceOf(to);\n        _ownedTokens[to][length] = tokenId;\n        _idToOwnedIndex[tokenId] = length;\n    }\n\n    function _removeTokenFromOwnerEnumeration(address from, uint tokenId) private {\n        uint lastTokenIndex = ERC721.balanceOf(from) - 1;\n        uint tokenIndex = _idToOwnedIndex[tokenId];\n\n        if (tokenIndex != lastTokenIndex) {\n            uint lastTokenId = _ownedTokens[from][lastTokenIndex];\n\n            _ownedTokens[from][tokenIndex] = lastTokenId;\n            _idToOwnedIndex[lastTokenId] = tokenIndex;\n        }\n\n        delete _idToOwnedIndex[tokenId];\n        delete _ownedTokens[from][lastTokenIndex];\n    }\n\n    function _removeTokenFromAllTokensEnumeration(uint tokenId) private {\n        uint lastTokenIndex = _allNfts.length - 1;\n        uint tokenIndex = _idToNftIndex[tokenId];\n        uint lastTokenId = _allNfts[lastTokenIndex];\n\n        _allNfts[tokenIndex] = lastTokenId;\n        _idToNftIndex[lastTokenId] = tokenIndex;\n\n        delete _idToNftIndex[tokenId];\n        _allNfts.pop();\n    }\n}\n",
  "sourcePath": "/Users/danielgeek/Documents/GitHub/blockchain_projects/12-nft-marketplace-2023/contracts/NftMarket.sol",
  "compiler": {
    "name": "solc",
    "version": "0.8.13+commit.abaa5c0e.Emscripten.clang"
  },
  "schemaVersion": "3.4.14",
  "updatedAt": "2023-08-23T03:37:12.046Z",
  "networkType": "ethereum",
  "devdoc": {
    "kind": "dev",
    "methods": {
      "approve(address,uint256)": {
        "details": "See {IERC721-approve}."
      },
      "balanceOf(address)": {
        "details": "See {IERC721-balanceOf}."
      },
      "getApproved(uint256)": {
        "details": "See {IERC721-getApproved}."
      },
      "isApprovedForAll(address,address)": {
        "details": "See {IERC721-isApprovedForAll}."
      },
      "name()": {
        "details": "See {IERC721Metadata-name}."
      },
      "owner()": {
        "details": "Returns the address of the current owner."
      },
      "ownerOf(uint256)": {
        "details": "See {IERC721-ownerOf}."
      },
      "renounceOwnership()": {
        "details": "Leaves the contract without owner. It will not be possible to call `onlyOwner` functions anymore. Can only be called by the current owner. NOTE: Renouncing ownership will leave the contract without an owner, thereby removing any functionality that is only available to the owner."
      },
      "safeTransferFrom(address,address,uint256)": {
        "details": "See {IERC721-safeTransferFrom}."
      },
      "safeTransferFrom(address,address,uint256,bytes)": {
        "details": "See {IERC721-safeTransferFrom}."
      },
      "setApprovalForAll(address,bool)": {
        "details": "See {IERC721-setApprovalForAll}."
      },
      "supportsInterface(bytes4)": {
        "details": "See {IERC165-supportsInterface}."
      },
      "symbol()": {
        "details": "See {IERC721Metadata-symbol}."
      },
      "tokenURI(uint256)": {
        "details": "See {IERC721Metadata-tokenURI}."
      },
      "transferFrom(address,address,uint256)": {
        "details": "See {IERC721-transferFrom}."
      },
      "transferOwnership(address)": {
        "details": "Transfers ownership of the contract to a new account (`newOwner`). Can only be called by the current owner."
      }
    },
    "version": 1
  },
  "userdoc": {
    "kind": "user",
    "methods": {},
    "version": 1
  }
}