{
  "_format": "hh-sol-artifact-1",
  "contractName": "PetAdoption",
  "sourceName": "contracts/PetAdoption.sol",
  "abi": [
    {
      "inputs": [],
      "stateMutability": "nonpayable",
      "type": "constructor"
    },
    {
      "inputs": [],
      "name": "addPet",
      "outputs": [],
      "stateMutability": "nonpayable",
      "type": "function"
    },
    {
      "inputs": [],
      "name": "getOwner",
      "outputs": [
        {
          "internalType": "address",
          "name": "",
          "type": "address"
        }
      ],
      "stateMutability": "view",
      "type": "function"
    },
    {
      "inputs": [],
      "name": "owner",
      "outputs": [
        {
          "internalType": "address",
          "name": "",
          "type": "address"
        }
      ],
      "stateMutability": "view",
      "type": "function"
    },
    {
      "inputs": [],
      "name": "petIndex",
      "outputs": [
        {
          "internalType": "uint256",
          "name": "",
          "type": "uint256"
        }
      ],
      "stateMutability": "view",
      "type": "function"
    }
  ],
  "bytecode": "0x6080604052600060015534801561001557600080fd5b50336000806101000a81548173ffffffffffffffffffffffffffffffffffffffff021916908373ffffffffffffffffffffffffffffffffffffffff160217905550610390806100656000396000f3fe608060405234801561001057600080fd5b506004361061004c5760003560e01c806330671a091461005157806346f43d431461006f578063893d20e8146100795780638da5cb5b14610097575b600080fd5b6100596100b5565b60405161006691906101c9565b60405180910390f35b6100776100bb565b005b610081610163565b60405161008e9190610225565b60405180910390f35b61009f61018c565b6040516100ac9190610225565b60405180910390f35b60015481565b60008054906101000a900473ffffffffffffffffffffffffffffffffffffffff1673ffffffffffffffffffffffffffffffffffffffff163373ffffffffffffffffffffffffffffffffffffffff1614610149576040517f08c379a0000000000000000000000000000000000000000000000000000000008152600401610140906102c3565b60405180910390fd5b6001600081548092919061015c90610312565b9190505550565b60008060009054906101000a900473ffffffffffffffffffffffffffffffffffffffff16905090565b60008054906101000a900473ffffffffffffffffffffffffffffffffffffffff1681565b6000819050919050565b6101c3816101b0565b82525050565b60006020820190506101de60008301846101ba565b92915050565b600073ffffffffffffffffffffffffffffffffffffffff82169050919050565b600061020f826101e4565b9050919050565b61021f81610204565b82525050565b600060208201905061023a6000830184610216565b92915050565b600082825260208201905092915050565b7f4f6e6c79206120636f6e7472616374206f776e65722063616e2061646420612060008201527f6e65772070657421000000000000000000000000000000000000000000000000602082015250565b60006102ad602883610240565b91506102b882610251565b604082019050919050565b600060208201905081810360008301526102dc816102a0565b9050919050565b7f4e487b7100000000000000000000000000000000000000000000000000000000600052601160045260246000fd5b600061031d826101b0565b91507fffffffffffffffffffffffffffffffffffffffffffffffffffffffffffffffff820361034f5761034e6102e3565b5b60018201905091905056fea26469706673582212204997694e1e6c7217edc6913845fe811b07bfb91425e69b3be817ae4a1ec00d6c64736f6c63430008130033",
  "linkReferences": {},
  "deployedLinkReferences": {}
}