{
  "_format": "hh-sol-artifact-1",
  "contractName": "PetAdoption",
  "sourceName": "contracts/PetAdoption.sol",
  "abi": [
    {
      "inputs": [
        {
          "internalType": "uint256",
          "name": "initialPetIndex",
          "type": "uint256"
        }
      ],
      "stateMutability": "nonpayable",
      "type": "constructor"
    },
    {
      "inputs": [],
      "name": "addPet",
      "outputs": [],
      "stateMutability": "nonpayable",
      "type": "function"
    },
    {
      "inputs": [
        {
          "internalType": "uint256",
          "name": "adoptIdx",
          "type": "uint256"
        }
      ],
      "name": "adoptPet",
      "outputs": [],
      "stateMutability": "nonpayable",
      "type": "function"
    },
    {
      "inputs": [
        {
          "internalType": "uint256",
          "name": "",
          "type": "uint256"
        }
      ],
      "name": "allAdoptedPets",
      "outputs": [
        {
          "internalType": "uint256",
          "name": "",
          "type": "uint256"
        }
      ],
      "stateMutability": "view",
      "type": "function"
    },
    {
      "inputs": [],
      "name": "getOwner",
      "outputs": [
        {
          "internalType": "address",
          "name": "",
          "type": "address"
        }
      ],
      "stateMutability": "view",
      "type": "function"
    },
    {
      "inputs": [],
      "name": "owner",
      "outputs": [
        {
          "internalType": "address",
          "name": "",
          "type": "address"
        }
      ],
      "stateMutability": "view",
      "type": "function"
    },
    {
      "inputs": [
        {
          "internalType": "address",
          "name": "",
          "type": "address"
        },
        {
          "internalType": "uint256",
          "name": "",
          "type": "uint256"
        }
      ],
      "name": "ownerAddressToPetList",
      "outputs": [
        {
          "internalType": "uint256",
          "name": "",
          "type": "uint256"
        }
      ],
      "stateMutability": "view",
      "type": "function"
    },
    {
      "inputs": [
        {
          "internalType": "uint256",
          "name": "",
          "type": "uint256"
        }
      ],
      "name": "petIdxToOwnerAddress",
      "outputs": [
        {
          "internalType": "address",
          "name": "",
          "type": "address"
        }
      ],
      "stateMutability": "view",
      "type": "function"
    },
    {
      "inputs": [],
      "name": "petIndex",
      "outputs": [
        {
          "internalType": "uint256",
          "name": "",
          "type": "uint256"
        }
      ],
      "stateMutability": "view",
      "type": "function"
    }
  ],
  "bytecode": "0x6080604052600060015534801561001557600080fd5b50604051610d3b380380610d3b833981810160405281019061003791906100bf565b336000806101000a81548173ffffffffffffffffffffffffffffffffffffffff021916908373ffffffffffffffffffffffffffffffffffffffff16021790555080600181905550506100ec565b600080fd5b6000819050919050565b61009c81610089565b81146100a757600080fd5b50565b6000815190506100b981610093565b92915050565b6000602082840312156100d5576100d4610084565b5b60006100e3848285016100aa565b91505092915050565b610c40806100fb6000396000f3fe608060405234801561001057600080fd5b50600436106100885760003560e01c8063893d20e81161005b578063893d20e8146101015780638da5cb5b1461011f578063a002a1351461013d578063b2421a321461016d57610088565b806319b815771461008d57806330671a09146100a957806346f43d43146100c75780635f5799ef146100d1575b600080fd5b6100a760048036038101906100a291906107bc565b61019d565b005b6100b1610476565b6040516100be91906107f8565b60405180910390f35b6100cf61047c565b005b6100eb60048036038101906100e69190610871565b610524565b6040516100f891906107f8565b60405180910390f35b610109610555565b60405161011691906108c0565b60405180910390f35b61012761057e565b60405161013491906108c0565b60405180910390f35b610157600480360381019061015291906107bc565b6105a2565b60405161016491906107f8565b60405180910390f35b610187600480360381019061018291906107bc565b6105c6565b60405161019491906108c0565b60405180910390f35b60015481106101e1576040517f08c379a00000000000000000000000000000000000000000000000000000000081526004016101d890610938565b60405180910390fd5b600073ffffffffffffffffffffffffffffffffffffffff166003600083815260200190815260200160002060009054906101000a900473ffffffffffffffffffffffffffffffffffffffff1673ffffffffffffffffffffffffffffffffffffffff1614610283576040517f08c379a000000000000000000000000000000000000000000000000000000000815260040161027a906109a4565b60405180910390fd5b6102c26040518060400160405280600e81526020017f41646f7074696e67207065743a20000000000000000000000000000000000000815250826105f9565b336003600083815260200190815260200160002060006101000a81548173ffffffffffffffffffffffffffffffffffffffff021916908373ffffffffffffffffffffffffffffffffffffffff1602179055506103866040518060400160405280600b81526020017f4e6577204f776e65723a200000000000000000000000000000000000000000008152506003600084815260200190815260200160002060009054906101000a900473ffffffffffffffffffffffffffffffffffffffff16610695565b600460003373ffffffffffffffffffffffffffffffffffffffff1673ffffffffffffffffffffffffffffffffffffffff16815260200190815260200160002081908060018154018082558091505060019003906000526020600020016000909190919091505560028190806001815401808255809150506001900390600052602060002001600090919091909150556104736040518060400160405280600581526020017f5065743a200000000000000000000000000000000000000000000000000000008152506002600081548110610463576104626109c4565b5b90600052602060002001546105f9565b50565b60015481565b60008054906101000a900473ffffffffffffffffffffffffffffffffffffffff1673ffffffffffffffffffffffffffffffffffffffff163373ffffffffffffffffffffffffffffffffffffffff161461050a576040517f08c379a000000000000000000000000000000000000000000000000000000000815260040161050190610a65565b60405180910390fd5b6001600081548092919061051d90610ab4565b9190505550565b6004602052816000526040600020818154811061054057600080fd5b90600052602060002001600091509150505481565b60008060009054906101000a900473ffffffffffffffffffffffffffffffffffffffff16905090565b60008054906101000a900473ffffffffffffffffffffffffffffffffffffffff1681565b600281815481106105b257600080fd5b906000526020600020016000915090505481565b60036020528060005260406000206000915054906101000a900473ffffffffffffffffffffffffffffffffffffffff1681565b610691828260405160240161060f929190610b7b565b6040516020818303038152906040527fb60e72cc000000000000000000000000000000000000000000000000000000007bffffffffffffffffffffffffffffffffffffffffffffffffffffffff19166020820180517bffffffffffffffffffffffffffffffffffffffffffffffffffffffff8381831617835250505050610731565b5050565b61072d82826040516024016106ab929190610bab565b6040516020818303038152906040527f319af333000000000000000000000000000000000000000000000000000000007bffffffffffffffffffffffffffffffffffffffffffffffffffffffff19166020820180517bffffffffffffffffffffffffffffffffffffffffffffffffffffffff8381831617835250505050610731565b5050565b6107488161074061074b61076c565b63ffffffff16565b50565b60006a636f6e736f6c652e6c6f679050600080835160208501845afa505050565b610777819050919050565b61077f610bdb565b565b600080fd5b6000819050919050565b61079981610786565b81146107a457600080fd5b50565b6000813590506107b681610790565b92915050565b6000602082840312156107d2576107d1610781565b5b60006107e0848285016107a7565b91505092915050565b6107f281610786565b82525050565b600060208201905061080d60008301846107e9565b92915050565b600073ffffffffffffffffffffffffffffffffffffffff82169050919050565b600061083e82610813565b9050919050565b61084e81610833565b811461085957600080fd5b50565b60008135905061086b81610845565b92915050565b6000806040838503121561088857610887610781565b5b60006108968582860161085c565b92505060206108a7858286016107a7565b9150509250929050565b6108ba81610833565b82525050565b60006020820190506108d560008301846108b1565b92915050565b600082825260208201905092915050565b7f50657420696e646578206f7574206f6620626f756e6473210000000000000000600082015250565b60006109226018836108db565b915061092d826108ec565b602082019050919050565b6000602082019050818103600083015261095181610915565b9050919050565b7f50657420697320616c72656164792061646f7074656400000000000000000000600082015250565b600061098e6016836108db565b915061099982610958565b602082019050919050565b600060208201905081810360008301526109bd81610981565b9050919050565b7f4e487b7100000000000000000000000000000000000000000000000000000000600052603260045260246000fd5b7f4f6e6c79206120636f6e7472616374206f776e65722063616e2061646420612060008201527f6e65772070657421000000000000000000000000000000000000000000000000602082015250565b6000610a4f6028836108db565b9150610a5a826109f3565b604082019050919050565b60006020820190508181036000830152610a7e81610a42565b9050919050565b7f4e487b7100000000000000000000000000000000000000000000000000000000600052601160045260246000fd5b6000610abf82610786565b91507fffffffffffffffffffffffffffffffffffffffffffffffffffffffffffffffff8203610af157610af0610a85565b5b600182019050919050565b600081519050919050565b60005b83811015610b25578082015181840152602081019050610b0a565b60008484015250505050565b6000601f19601f8301169050919050565b6000610b4d82610afc565b610b5781856108db565b9350610b67818560208601610b07565b610b7081610b31565b840191505092915050565b60006040820190508181036000830152610b958185610b42565b9050610ba460208301846107e9565b9392505050565b60006040820190508181036000830152610bc58185610b42565b9050610bd460208301846108b1565b9392505050565b7f4e487b7100000000000000000000000000000000000000000000000000000000600052605160045260246000fdfea26469706673582212206f3f247816786915b3e9eb7fbcd69da37c71a9eda020eecb0f8e2ce06cb4d12e64736f6c63430008130033",
  "linkReferences": {},
  "deployedLinkReferences": {}
}