{"abi":[{"type":"function","name":"staleCheckLatestRoundData","inputs":[{"name":"chainlinkFeed","type":"AggregatorV3Interface","internalType":"contract AggregatorV3Interface"}],"outputs":[{"name":"","type":"uint80","internalType":"uint80"},{"name":"","type":"int256","internalType":"int256"},{"name":"","type":"uint256","internalType":"uint256"},{"name":"","type":"uint256","internalType":"uint256"},{"name":"","type":"uint80","internalType":"uint80"}],"stateMutability":"view"},{"type":"error","name":"OracleLib__StalePrice","inputs":[]}],"bytecode":{"object":"0x61028761003a600b82828239805160001a60731461002d57634e487b7160e01b600052600060045260246000fd5b30600052607381538281f3fe73000000000000000000000000000000000000000030146080604052600436106100355760003560e01c80632ba1c96a1461003a575b600080fd5b61004d61004836600461018b565b610088565b6040805169ffffffffffffffffffff968716815260208101959095528401929092526060830152909116608082015260a00160405180910390f35b6000806000806000806000806000808a6001600160a01b031663feaf968c6040518163ffffffff1660e01b815260040160a060405180830381865afa1580156100d5573d6000803e3d6000fd5b505050506040513d601f19601f820116820180604052508101906100f991906101da565b94509450945094509450816000148061012957508469ffffffffffffffffffff168169ffffffffffffffffffff16105b1561014757604051636250849d60e11b815260040160405180910390fd5b6000610153834261022a565b9050612a3081111561017857604051636250849d60e11b815260040160405180910390fd5b50939a9299509097509550909350915050565b60006020828403121561019d57600080fd5b81356001600160a01b03811681146101b457600080fd5b9392505050565b805169ffffffffffffffffffff811681146101d557600080fd5b919050565b600080600080600060a086880312156101f257600080fd5b6101fb866101bb565b945060208601519350604086015192506060860151915061021e608087016101bb565b90509295509295909350565b8181038181111561024b57634e487b7160e01b600052601160045260246000fd5b9291505056fea26469706673582212203c08bc565d339bd3da0d70e5dc3ca7f1e63e8e277f8274a4620fe925504b46b864736f6c63430008140033","linkReferences":{}},"methodIdentifiers":{"staleCheckLatestRoundData(AggregatorV3Interface)":"2ba1c96a"},"id":38}